{
  "address": "0xF2EcFc87f204B8B5f6059Eb46F8b72A7D4eE66dC",
  "abi": [
    {
      "inputs": [],
      "stateMutability": "nonpayable",
      "type": "constructor"
    },
    {
      "anonymous": false,
      "inputs": [
        {
          "indexed": true,
          "internalType": "address",
          "name": "owner",
          "type": "address"
        },
        {
          "indexed": true,
          "internalType": "address",
          "name": "spender",
          "type": "address"
        },
        {
          "indexed": false,
          "internalType": "uint256",
          "name": "value",
          "type": "uint256"
        }
      ],
      "name": "Approval",
      "type": "event"
    },
    {
      "anonymous": false,
      "inputs": [
        {
          "indexed": true,
          "internalType": "address",
          "name": "receiver",
          "type": "address"
        },
        {
          "indexed": false,
          "internalType": "uint256",
          "name": "_amount",
          "type": "uint256"
        }
      ],
      "name": "Burn",
      "type": "event"
    },
    {
      "anonymous": false,
      "inputs": [
        {
          "indexed": true,
          "internalType": "address",
          "name": "receiver",
          "type": "address"
        },
        {
          "indexed": false,
          "internalType": "uint256",
          "name": "_amount",
          "type": "uint256"
        }
      ],
      "name": "Mint",
      "type": "event"
    },
    {
      "anonymous": false,
      "inputs": [
        {
          "indexed": true,
          "internalType": "bytes32",
          "name": "role",
          "type": "bytes32"
        },
        {
          "indexed": true,
          "internalType": "bytes32",
          "name": "previousAdminRole",
          "type": "bytes32"
        },
        {
          "indexed": true,
          "internalType": "bytes32",
          "name": "newAdminRole",
          "type": "bytes32"
        }
      ],
      "name": "RoleAdminChanged",
      "type": "event"
    },
    {
      "anonymous": false,
      "inputs": [
        {
          "indexed": true,
          "internalType": "bytes32",
          "name": "role",
          "type": "bytes32"
        },
        {
          "indexed": true,
          "internalType": "address",
          "name": "account",
          "type": "address"
        },
        {
          "indexed": true,
          "internalType": "address",
          "name": "sender",
          "type": "address"
        }
      ],
      "name": "RoleGranted",
      "type": "event"
    },
    {
      "anonymous": false,
      "inputs": [
        {
          "indexed": true,
          "internalType": "bytes32",
          "name": "role",
          "type": "bytes32"
        },
        {
          "indexed": true,
          "internalType": "address",
          "name": "account",
          "type": "address"
        },
        {
          "indexed": true,
          "internalType": "address",
          "name": "sender",
          "type": "address"
        }
      ],
      "name": "RoleRevoked",
      "type": "event"
    },
    {
      "anonymous": false,
      "inputs": [
        {
          "indexed": true,
          "internalType": "address",
          "name": "from",
          "type": "address"
        },
        {
          "indexed": true,
          "internalType": "address",
          "name": "to",
          "type": "address"
        },
        {
          "indexed": false,
          "internalType": "uint256",
          "name": "value",
          "type": "uint256"
        }
      ],
      "name": "Transfer",
      "type": "event"
    },
    {
      "inputs": [],
      "name": "AAVE_POOL",
      "outputs": [
        {
          "internalType": "contract IPool",
          "name": "",
          "type": "address"
        }
      ],
      "stateMutability": "view",
      "type": "function"
    },
    {
      "inputs": [],
      "name": "DEFAULT_ADMIN_ROLE",
      "outputs": [
        {
          "internalType": "bytes32",
          "name": "",
          "type": "bytes32"
        }
      ],
      "stateMutability": "view",
      "type": "function"
    },
    {
      "inputs": [],
      "name": "RESTAURANT",
      "outputs": [
        {
          "internalType": "bytes32",
          "name": "",
          "type": "bytes32"
        }
      ],
      "stateMutability": "view",
      "type": "function"
    },
    {
      "inputs": [],
      "name": "USDC",
      "outputs": [
        {
          "internalType": "contract IERC20",
          "name": "",
          "type": "address"
        }
      ],
      "stateMutability": "view",
      "type": "function"
    },
    {
      "inputs": [
        {
          "internalType": "address",
          "name": "_newRestaurant",
          "type": "address"
        }
      ],
      "name": "addRestaurant",
      "outputs": [],
      "stateMutability": "nonpayable",
      "type": "function"
    },
    {
      "inputs": [
        {
          "internalType": "address",
          "name": "owner",
          "type": "address"
        },
        {
          "internalType": "address",
          "name": "spender",
          "type": "address"
        }
      ],
      "name": "allowance",
      "outputs": [
        {
          "internalType": "uint256",
          "name": "",
          "type": "uint256"
        }
      ],
      "stateMutability": "view",
      "type": "function"
    },
    {
      "inputs": [
        {
          "internalType": "address",
          "name": "spender",
          "type": "address"
        },
        {
          "internalType": "uint256",
          "name": "amount",
          "type": "uint256"
        }
      ],
      "name": "approve",
      "outputs": [
        {
          "internalType": "bool",
          "name": "",
          "type": "bool"
        }
      ],
      "stateMutability": "nonpayable",
      "type": "function"
    },
    {
      "inputs": [
        {
          "internalType": "address",
          "name": "account",
          "type": "address"
        }
      ],
      "name": "balanceOf",
      "outputs": [
        {
          "internalType": "uint256",
          "name": "",
          "type": "uint256"
        }
      ],
      "stateMutability": "view",
      "type": "function"
    },
    {
      "inputs": [
        {
          "internalType": "uint256",
          "name": "_amount",
          "type": "uint256"
        }
      ],
      "name": "buyToken",
      "outputs": [],
      "stateMutability": "payable",
      "type": "function"
    },
    {
      "inputs": [],
      "name": "decimals",
      "outputs": [
        {
          "internalType": "uint8",
          "name": "",
          "type": "uint8"
        }
      ],
      "stateMutability": "view",
      "type": "function"
    },
    {
      "inputs": [
        {
          "internalType": "address",
          "name": "spender",
          "type": "address"
        },
        {
          "internalType": "uint256",
          "name": "subtractedValue",
          "type": "uint256"
        }
      ],
      "name": "decreaseAllowance",
      "outputs": [
        {
          "internalType": "bool",
          "name": "",
          "type": "bool"
        }
      ],
      "stateMutability": "nonpayable",
      "type": "function"
    },
    {
      "inputs": [],
      "name": "getLatestPrice",
      "outputs": [
        {
          "internalType": "int256",
          "name": "",
          "type": "int256"
        }
      ],
      "stateMutability": "view",
      "type": "function"
    },
    {
      "inputs": [
        {
          "internalType": "bytes32",
          "name": "role",
          "type": "bytes32"
        }
      ],
      "name": "getRoleAdmin",
      "outputs": [
        {
          "internalType": "bytes32",
          "name": "",
          "type": "bytes32"
        }
      ],
      "stateMutability": "view",
      "type": "function"
    },
    {
      "inputs": [
        {
          "internalType": "bytes32",
          "name": "role",
          "type": "bytes32"
        },
        {
          "internalType": "address",
          "name": "account",
          "type": "address"
        }
      ],
      "name": "grantRole",
      "outputs": [],
      "stateMutability": "nonpayable",
      "type": "function"
    },
    {
      "inputs": [
        {
          "internalType": "bytes32",
          "name": "role",
          "type": "bytes32"
        },
        {
          "internalType": "address",
          "name": "account",
          "type": "address"
        }
      ],
      "name": "hasRole",
      "outputs": [
        {
          "internalType": "bool",
          "name": "",
          "type": "bool"
        }
      ],
      "stateMutability": "view",
      "type": "function"
    },
    {
      "inputs": [
        {
          "internalType": "address",
          "name": "spender",
          "type": "address"
        },
        {
          "internalType": "uint256",
          "name": "addedValue",
          "type": "uint256"
        }
      ],
      "name": "increaseAllowance",
      "outputs": [
        {
          "internalType": "bool",
          "name": "",
          "type": "bool"
        }
      ],
      "stateMutability": "nonpayable",
      "type": "function"
    },
    {
      "inputs": [],
      "name": "name",
      "outputs": [
        {
          "internalType": "string",
          "name": "",
          "type": "string"
        }
      ],
      "stateMutability": "view",
      "type": "function"
    },
    {
      "inputs": [],
      "name": "percentage",
      "outputs": [
        {
          "internalType": "uint16",
          "name": "",
          "type": "uint16"
        }
      ],
      "stateMutability": "view",
      "type": "function"
    },
    {
      "inputs": [
        {
          "internalType": "bytes32",
          "name": "role",
          "type": "bytes32"
        },
        {
          "internalType": "address",
          "name": "account",
          "type": "address"
        }
      ],
      "name": "renounceRole",
      "outputs": [],
      "stateMutability": "nonpayable",
      "type": "function"
    },
    {
      "inputs": [
        {
          "internalType": "address",
          "name": "_restaurant",
          "type": "address"
        },
        {
          "internalType": "uint256",
          "name": "_timestamp",
          "type": "uint256"
        }
      ],
      "name": "reserve",
      "outputs": [],
      "stateMutability": "nonpayable",
      "type": "function"
    },
    {
      "inputs": [
        {
          "internalType": "bytes32",
          "name": "role",
          "type": "bytes32"
        },
        {
          "internalType": "address",
          "name": "account",
          "type": "address"
        }
      ],
      "name": "revokeRole",
      "outputs": [],
      "stateMutability": "nonpayable",
      "type": "function"
    },
    {
      "inputs": [
        {
          "internalType": "uint256",
          "name": "_amount",
          "type": "uint256"
        }
      ],
      "name": "supplyLiquidity",
      "outputs": [],
      "stateMutability": "nonpayable",
      "type": "function"
    },
    {
      "inputs": [
        {
          "internalType": "bytes4",
          "name": "interfaceId",
          "type": "bytes4"
        }
      ],
      "name": "supportsInterface",
      "outputs": [
        {
          "internalType": "bool",
          "name": "",
          "type": "bool"
        }
      ],
      "stateMutability": "view",
      "type": "function"
    },
    {
      "inputs": [],
      "name": "symbol",
      "outputs": [
        {
          "internalType": "string",
          "name": "",
          "type": "string"
        }
      ],
      "stateMutability": "view",
      "type": "function"
    },
    {
      "inputs": [],
      "name": "totalSupply",
      "outputs": [
        {
          "internalType": "uint256",
          "name": "",
          "type": "uint256"
        }
      ],
      "stateMutability": "view",
      "type": "function"
    },
    {
      "inputs": [
        {
          "internalType": "address",
          "name": "to",
          "type": "address"
        },
        {
          "internalType": "uint256",
          "name": "amount",
          "type": "uint256"
        }
      ],
      "name": "transfer",
      "outputs": [
        {
          "internalType": "bool",
          "name": "",
          "type": "bool"
        }
      ],
      "stateMutability": "nonpayable",
      "type": "function"
    },
    {
      "inputs": [
        {
          "internalType": "address",
          "name": "from",
          "type": "address"
        },
        {
          "internalType": "address",
          "name": "to",
          "type": "address"
        },
        {
          "internalType": "uint256",
          "name": "amount",
          "type": "uint256"
        }
      ],
      "name": "transferFrom",
      "outputs": [
        {
          "internalType": "bool",
          "name": "",
          "type": "bool"
        }
      ],
      "stateMutability": "nonpayable",
      "type": "function"
    },
    {
      "inputs": [
        {
          "internalType": "uint16",
          "name": "_percentage",
          "type": "uint16"
        }
      ],
      "name": "updatePercentage",
      "outputs": [],
      "stateMutability": "nonpayable",
      "type": "function"
    },
    {
      "inputs": [
        {
          "internalType": "address",
          "name": "_customer",
          "type": "address"
        },
        {
          "internalType": "uint256",
          "name": "_amount",
          "type": "uint256"
        }
      ],
      "name": "verify",
      "outputs": [],
      "stateMutability": "nonpayable",
      "type": "function"
    },
    {
      "inputs": [],
      "name": "withdrawLiquidity",
      "outputs": [],
      "stateMutability": "nonpayable",
      "type": "function"
    },
    {
      "stateMutability": "payable",
      "type": "receive"
    }
  ],
  "transactionHash": "0xb30fcace5d122395f9179f503dd52e3e3cb6e6e7ea8510c78b6a6cbdd0e7c7f9",
  "args": [],
  "numDeployments": 4,
  "solcInputHash": "ce79d9628b0231ef89c5de673176d9e6",
  "bytecode": "0x6080604052736c9fb0d5bd9429eb9cd96b85b81d872281771e6b600760006101000a81548173ffffffffffffffffffffffffffffffffffffffff021916908373ffffffffffffffffffffffffffffffffffffffff16021790555073e6b8a5cf854791412c1f6efc7caf629f5df1c747600860006101000a81548173ffffffffffffffffffffffffffffffffffffffff021916908373ffffffffffffffffffffffffffffffffffffffff1602179055506005600860146101000a81548161ffff021916908361ffff160217905550348015620000d957600080fd5b506040518060400160405280600681526020017f43525720435000000000000000000000000000000000000000000000000000008152506040518060400160405280600681526020017f435257204350000000000000000000000000000000000000000000000000000081525081600390805190602001906200015e92919062000381565b5080600490805190602001906200017792919062000381565b50505073d0d5e3db44de05e9f294bb0a3beeaf030de24ada600660006101000a81548173ffffffffffffffffffffffffffffffffffffffff021916908373ffffffffffffffffffffffffffffffffffffffff160217905550620001e46000801b336200021c60201b60201c565b620002167fa84bc650dcfe8cf5dd2d367b3dc1a91a13f026e1369e505155272a42b6fec9ff336200021c60201b60201c565b62000496565b6200022e82826200030e60201b60201c565b6200030a5760016005600084815260200190815260200160002060000160008373ffffffffffffffffffffffffffffffffffffffff1673ffffffffffffffffffffffffffffffffffffffff16815260200190815260200160002060006101000a81548160ff021916908315150217905550620002af6200037960201b60201c565b73ffffffffffffffffffffffffffffffffffffffff168173ffffffffffffffffffffffffffffffffffffffff16837f2f8788117e7eff1d82e926ec794901d17c78024a50270940304540a733656f0d60405160405180910390a45b5050565b60006005600084815260200190815260200160002060000160008373ffffffffffffffffffffffffffffffffffffffff1673ffffffffffffffffffffffffffffffffffffffff16815260200190815260200160002060009054906101000a900460ff16905092915050565b600033905090565b8280546200038f9062000460565b90600052602060002090601f016020900481019282620003b35760008555620003ff565b82601f10620003ce57805160ff1916838001178555620003ff565b82800160010185558215620003ff579182015b82811115620003fe578251825591602001919060010190620003e1565b5b5090506200040e919062000412565b5090565b5b808211156200042d57600081600090555060010162000413565b5090565b7f4e487b7100000000000000000000000000000000000000000000000000000000600052602260045260246000fd5b600060028204905060018216806200047957607f821691505b6020821081141562000490576200048f62000431565b5b50919050565b61397680620004a66000396000f3fe6080604052600436106101d15760003560e01c80636704fe9f116100f7578063a217fddf11610095578063cc47a40b11610064578063cc47a40b146106ae578063d547741f146106d7578063d6c25a2f14610700578063dd62ed3e1461072b576101d8565b8063a217fddf146105de578063a457c2d714610609578063a9059cbb14610646578063c78ad77f14610683576101d8565b806389a30271116100d157806389a30271146105205780638e15f4731461054b57806391d148541461057657806395d89b41146105b3576101d8565b80636704fe9f146104a357806370a08231146104cc5780637ea382c114610509576101d8565b80632d296bf11161016f57806336568abe1161013e57806336568abe146103eb57806339509351146104145780633ea1025f146104515780635860f7f61461047a576101d8565b80632d296bf1146103525780632f2ff15d1461036e578063313ce56714610397578063328a8cc4146103c2576101d8565b8063095ea7b3116101ab578063095ea7b31461027057806318160ddd146102ad57806323b872dd146102d8578063248a9ca314610315576101d8565b806301ffc9a7146101dd57806306fdde031461021a57806308a0167514610245576101d8565b366101d857005b600080fd5b3480156101e957600080fd5b5061020460048036038101906101ff91906123f7565b610768565b604051610211919061243f565b60405180910390f35b34801561022657600080fd5b5061022f6107e2565b60405161023c91906124f3565b60405180910390f35b34801561025157600080fd5b5061025a610874565b6040516102679190612594565b60405180910390f35b34801561027c57600080fd5b5061029760048036038101906102929190612623565b61089a565b6040516102a4919061243f565b60405180910390f35b3480156102b957600080fd5b506102c26108bd565b6040516102cf9190612672565b60405180910390f35b3480156102e457600080fd5b506102ff60048036038101906102fa919061268d565b6108c7565b60405161030c919061243f565b60405180910390f35b34801561032157600080fd5b5061033c60048036038101906103379190612716565b6108f6565b6040516103499190612752565b60405180910390f35b61036c6004803603810190610367919061276d565b610916565b005b34801561037a57600080fd5b506103956004803603810190610390919061279a565b610ad3565b005b3480156103a357600080fd5b506103ac610af4565b6040516103b991906127f6565b60405180910390f35b3480156103ce57600080fd5b506103e960048036038101906103e49190612811565b610afd565b005b3480156103f757600080fd5b50610412600480360381019061040d919061279a565b610b3c565b005b34801561042057600080fd5b5061043b60048036038101906104369190612623565b610bbf565b604051610448919061243f565b60405180910390f35b34801561045d57600080fd5b506104786004803603810190610473919061276d565b610bf6565b005b34801561048657600080fd5b506104a1600480360381019061049c9190612878565b610e3e565b005b3480156104af57600080fd5b506104ca60048036038101906104c59190612623565b610e6c565b005b3480156104d857600080fd5b506104f360048036038101906104ee9190612811565b610fe4565b6040516105009190612672565b60405180910390f35b34801561051557600080fd5b5061051e61102c565b005b34801561052c57600080fd5b5061053561126b565b60405161054291906128c6565b60405180910390f35b34801561055757600080fd5b50610560611291565b60405161056d91906128fa565b60405180910390f35b34801561058257600080fd5b5061059d6004803603810190610598919061279a565b611332565b6040516105aa919061243f565b60405180910390f35b3480156105bf57600080fd5b506105c861139d565b6040516105d591906124f3565b60405180910390f35b3480156105ea57600080fd5b506105f361142f565b6040516106009190612752565b60405180910390f35b34801561061557600080fd5b50610630600480360381019061062b9190612623565b611436565b60405161063d919061243f565b60405180910390f35b34801561065257600080fd5b5061066d60048036038101906106689190612623565b6114ad565b60405161067a919061243f565b60405180910390f35b34801561068f57600080fd5b506106986114d0565b6040516106a59190612924565b60405180910390f35b3480156106ba57600080fd5b506106d560048036038101906106d09190612623565b6114e4565b005b3480156106e357600080fd5b506106fe60048036038101906106f9919061279a565b611593565b005b34801561070c57600080fd5b506107156115b4565b6040516107229190612752565b60405180910390f35b34801561073757600080fd5b50610752600480360381019061074d919061293f565b6115d8565b60405161075f9190612672565b60405180910390f35b60007f7965db0b000000000000000000000000000000000000000000000000000000007bffffffffffffffffffffffffffffffffffffffffffffffffffffffff1916827bffffffffffffffffffffffffffffffffffffffffffffffffffffffff191614806107db57506107da8261165f565b5b9050919050565b6060600380546107f1906129ae565b80601f016020809104026020016040519081016040528092919081815260200182805461081d906129ae565b801561086a5780601f1061083f5761010080835404028352916020019161086a565b820191906000526020600020905b81548152906001019060200180831161084d57829003601f168201915b5050505050905090565b600760009054906101000a900473ffffffffffffffffffffffffffffffffffffffff1681565b6000806108a56116c9565b90506108b28185856116d1565b600191505092915050565b6000600254905090565b6000806108d26116c9565b90506108df85828561189c565b6108ea858585611928565b60019150509392505050565b600060056000838152602001908152602001600020600101549050919050565b60006402540be400610926611291565b6109309190612a0f565b9050662386f26fc1000082101561097c576040517f08c379a000000000000000000000000000000000000000000000000000000000815260040161097390612b72565b60405180910390fd5b80826109889190612bc1565b3410156109ca576040517f08c379a00000000000000000000000000000000000000000000000000000000081526004016109c190612c3e565b60405180910390fd5b60003073ffffffffffffffffffffffffffffffffffffffff16346040516109f090612c8f565b60006040518083038185875af1925050503d8060008114610a2d576040519150601f19603f3d011682016040523d82523d6000602084013e610a32565b606091505b5050905080610a76576040517f08c379a0000000000000000000000000000000000000000000000000000000008152600401610a6d90612cf0565b60405180910390fd5b610a803384611ba9565b3373ffffffffffffffffffffffffffffffffffffffff167f0f6798a560793a54c3bcfe86a93cde1e73087d944c0ea20544137d412139688584604051610ac69190612672565b60405180910390a2505050565b610adc826108f6565b610ae581611d09565b610aef8383611d1d565b505050565b60006012905090565b610b277fa84bc650dcfe8cf5dd2d367b3dc1a91a13f026e1369e505155272a42b6fec9ff82611d1d565b610b39336729a2241af62c0000611ba9565b50565b610b446116c9565b73ffffffffffffffffffffffffffffffffffffffff168173ffffffffffffffffffffffffffffffffffffffff1614610bb1576040517f08c379a0000000000000000000000000000000000000000000000000000000008152600401610ba890612d82565b60405180910390fd5b610bbb8282611dfe565b5050565b600080610bca6116c9565b9050610beb818585610bdc85896115d8565b610be69190612da2565b6116d1565b600191505092915050565b600064e8d4a5100082610c099190612bc1565b905080600860009054906101000a900473ffffffffffffffffffffffffffffffffffffffff1673ffffffffffffffffffffffffffffffffffffffff166370a08231306040518263ffffffff1660e01b8152600401610c679190612e07565b602060405180830381865afa158015610c84573d6000803e3d6000fd5b505050506040513d601f19601f82011682018060405250810190610ca89190612e37565b11610ce8576040517f08c379a0000000000000000000000000000000000000000000000000000000008152600401610cdf90612eb0565b60405180910390fd5b600760009054906101000a900473ffffffffffffffffffffffffffffffffffffffff1673ffffffffffffffffffffffffffffffffffffffff1663617ba037600860009054906101000a900473ffffffffffffffffffffffffffffffffffffffff16833060006040518563ffffffff1660e01b8152600401610d6c9493929190612f0b565b600060405180830381600087803b158015610d8657600080fd5b505af1158015610d9a573d6000803e3d6000fd5b5050505081600a60003373ffffffffffffffffffffffffffffffffffffffff1673ffffffffffffffffffffffffffffffffffffffff16815260200190815260200160002081905550610dec3383611ee0565b3373ffffffffffffffffffffffffffffffffffffffff167fcc16f5dbb4873280815c1ee09dbd06736cffcc184412cf7a71a0fdb75d397ca583604051610e329190612672565b60405180910390a25050565b6000801b610e4b81611d09565b81600860146101000a81548161ffff021916908361ffff1602179055505050565b7fa84bc650dcfe8cf5dd2d367b3dc1a91a13f026e1369e505155272a42b6fec9ff610e9681611d09565b6000600960008573ffffffffffffffffffffffffffffffffffffffff1673ffffffffffffffffffffffffffffffffffffffff16815260200190815260200160002060003373ffffffffffffffffffffffffffffffffffffffff1673ffffffffffffffffffffffffffffffffffffffff168152602001908152602001600020541415610f56576040517f08c379a0000000000000000000000000000000000000000000000000000000008152600401610f4d90612f9c565b60405180910390fd5b60006064600860149054906101000a900461ffff1661ffff1684610f7a9190612fbc565b610f849190612bc1565b9050610f908482611ba9565b8373ffffffffffffffffffffffffffffffffffffffff167f0f6798a560793a54c3bcfe86a93cde1e73087d944c0ea20544137d412139688582604051610fd69190612672565b60405180910390a250505050565b60008060008373ffffffffffffffffffffffffffffffffffffffff1673ffffffffffffffffffffffffffffffffffffffff168152602001908152602001600020549050919050565b6000600a60003373ffffffffffffffffffffffffffffffffffffffff1673ffffffffffffffffffffffffffffffffffffffff16815260200190815260200160002054116110ae576040517f08c379a00000000000000000000000000000000000000000000000000000000081526004016110a590613062565b60405180910390fd5b6000600760009054906101000a900473ffffffffffffffffffffffffffffffffffffffff1673ffffffffffffffffffffffffffffffffffffffff166369328dec600860009054906101000a900473ffffffffffffffffffffffffffffffffffffffff16600a60003373ffffffffffffffffffffffffffffffffffffffff1673ffffffffffffffffffffffffffffffffffffffff16815260200190815260200160002054306040518463ffffffff1660e01b815260040161117093929190613082565b6020604051808303816000875af115801561118f573d6000803e3d6000fd5b505050506040513d601f19601f820116820180604052508101906111b39190612e37565b90506000600a60003373ffffffffffffffffffffffffffffffffffffffff1673ffffffffffffffffffffffffffffffffffffffff16815260200190815260200160002081905550600064e8d4a510008261120d9190612fbc565b90506112193382611ba9565b3373ffffffffffffffffffffffffffffffffffffffff167f0f6798a560793a54c3bcfe86a93cde1e73087d944c0ea20544137d41213968858260405161125f9190612672565b60405180910390a25050565b600860009054906101000a900473ffffffffffffffffffffffffffffffffffffffff1681565b600080600660009054906101000a900473ffffffffffffffffffffffffffffffffffffffff1673ffffffffffffffffffffffffffffffffffffffff1663feaf968c6040518163ffffffff1660e01b815260040160a060405180830381865afa158015611301573d6000803e3d6000fd5b505050506040513d601f19601f820116820180604052508101906113259190613127565b5050509150508091505090565b60006005600084815260200190815260200160002060000160008373ffffffffffffffffffffffffffffffffffffffff1673ffffffffffffffffffffffffffffffffffffffff16815260200190815260200160002060009054906101000a900460ff16905092915050565b6060600480546113ac906129ae565b80601f01602080910402602001604051908101604052809291908181526020018280546113d8906129ae565b80156114255780601f106113fa57610100808354040283529160200191611425565b820191906000526020600020905b81548152906001019060200180831161140857829003601f168201915b5050505050905090565b6000801b81565b6000806114416116c9565b9050600061144f82866115d8565b905083811015611494576040517f08c379a000000000000000000000000000000000000000000000000000000000815260040161148b90613214565b60405180910390fd5b6114a182868684036116d1565b60019250505092915050565b6000806114b86116c9565b90506114c5818585611928565b600191505092915050565b600860149054906101000a900461ffff1681565b80600960003373ffffffffffffffffffffffffffffffffffffffff1673ffffffffffffffffffffffffffffffffffffffff16815260200190815260200160002060008473ffffffffffffffffffffffffffffffffffffffff1673ffffffffffffffffffffffffffffffffffffffff1681526020019081526020016000208190555061158f7fa84bc650dcfe8cf5dd2d367b3dc1a91a13f026e1369e505155272a42b6fec9ff83611d1d565b5050565b61159c826108f6565b6115a581611d09565b6115af8383611dfe565b505050565b7fa84bc650dcfe8cf5dd2d367b3dc1a91a13f026e1369e505155272a42b6fec9ff81565b6000600160008473ffffffffffffffffffffffffffffffffffffffff1673ffffffffffffffffffffffffffffffffffffffff16815260200190815260200160002060008373ffffffffffffffffffffffffffffffffffffffff1673ffffffffffffffffffffffffffffffffffffffff16815260200190815260200160002054905092915050565b60007f01ffc9a7000000000000000000000000000000000000000000000000000000007bffffffffffffffffffffffffffffffffffffffffffffffffffffffff1916827bffffffffffffffffffffffffffffffffffffffffffffffffffffffff1916149050919050565b600033905090565b600073ffffffffffffffffffffffffffffffffffffffff168373ffffffffffffffffffffffffffffffffffffffff161415611741576040517f08c379a0000000000000000000000000000000000000000000000000000000008152600401611738906132a6565b60405180910390fd5b600073ffffffffffffffffffffffffffffffffffffffff168273ffffffffffffffffffffffffffffffffffffffff1614156117b1576040517f08c379a00000000000000000000000000000000000000000000000000000000081526004016117a890613338565b60405180910390fd5b80600160008573ffffffffffffffffffffffffffffffffffffffff1673ffffffffffffffffffffffffffffffffffffffff16815260200190815260200160002060008473ffffffffffffffffffffffffffffffffffffffff1673ffffffffffffffffffffffffffffffffffffffff168152602001908152602001600020819055508173ffffffffffffffffffffffffffffffffffffffff168373ffffffffffffffffffffffffffffffffffffffff167f8c5be1e5ebec7d5bd14f71427d1e84f3dd0314c0f7b2291e5b200ac8c7c3b9258360405161188f9190612672565b60405180910390a3505050565b60006118a884846115d8565b90507fffffffffffffffffffffffffffffffffffffffffffffffffffffffffffffffff81146119225781811015611914576040517f08c379a000000000000000000000000000000000000000000000000000000000815260040161190b906133a4565b60405180910390fd5b61192184848484036116d1565b5b50505050565b600073ffffffffffffffffffffffffffffffffffffffff168373ffffffffffffffffffffffffffffffffffffffff161415611998576040517f08c379a000000000000000000000000000000000000000000000000000000000815260040161198f90613436565b60405180910390fd5b600073ffffffffffffffffffffffffffffffffffffffff168273ffffffffffffffffffffffffffffffffffffffff161415611a08576040517f08c379a00000000000000000000000000000000000000000000000000000000081526004016119ff906134c8565b60405180910390fd5b611a138383836120b7565b60008060008573ffffffffffffffffffffffffffffffffffffffff1673ffffffffffffffffffffffffffffffffffffffff16815260200190815260200160002054905081811015611a99576040517f08c379a0000000000000000000000000000000000000000000000000000000008152600401611a909061355a565b60405180910390fd5b8181036000808673ffffffffffffffffffffffffffffffffffffffff1673ffffffffffffffffffffffffffffffffffffffff16815260200190815260200160002081905550816000808573ffffffffffffffffffffffffffffffffffffffff1673ffffffffffffffffffffffffffffffffffffffff1681526020019081526020016000206000828254611b2c9190612da2565b925050819055508273ffffffffffffffffffffffffffffffffffffffff168473ffffffffffffffffffffffffffffffffffffffff167fddf252ad1be2c89b69c2b068fc378daa952ba7f163c4a11628f55a4df523b3ef84604051611b909190612672565b60405180910390a3611ba38484846120bc565b50505050565b600073ffffffffffffffffffffffffffffffffffffffff168273ffffffffffffffffffffffffffffffffffffffff161415611c19576040517f08c379a0000000000000000000000000000000000000000000000000000000008152600401611c10906135c6565b60405180910390fd5b611c25600083836120b7565b8060026000828254611c379190612da2565b92505081905550806000808473ffffffffffffffffffffffffffffffffffffffff1673ffffffffffffffffffffffffffffffffffffffff1681526020019081526020016000206000828254611c8c9190612da2565b925050819055508173ffffffffffffffffffffffffffffffffffffffff16600073ffffffffffffffffffffffffffffffffffffffff167fddf252ad1be2c89b69c2b068fc378daa952ba7f163c4a11628f55a4df523b3ef83604051611cf19190612672565b60405180910390a3611d05600083836120bc565b5050565b611d1a81611d156116c9565b6120c1565b50565b611d278282611332565b611dfa5760016005600084815260200190815260200160002060000160008373ffffffffffffffffffffffffffffffffffffffff1673ffffffffffffffffffffffffffffffffffffffff16815260200190815260200160002060006101000a81548160ff021916908315150217905550611d9f6116c9565b73ffffffffffffffffffffffffffffffffffffffff168173ffffffffffffffffffffffffffffffffffffffff16837f2f8788117e7eff1d82e926ec794901d17c78024a50270940304540a733656f0d60405160405180910390a45b5050565b611e088282611332565b15611edc5760006005600084815260200190815260200160002060000160008373ffffffffffffffffffffffffffffffffffffffff1673ffffffffffffffffffffffffffffffffffffffff16815260200190815260200160002060006101000a81548160ff021916908315150217905550611e816116c9565b73ffffffffffffffffffffffffffffffffffffffff168173ffffffffffffffffffffffffffffffffffffffff16837ff6391f5c32d9c69d2a47ea670b442974b53935d1edc7fd64eb21e047a839171b60405160405180910390a45b5050565b600073ffffffffffffffffffffffffffffffffffffffff168273ffffffffffffffffffffffffffffffffffffffff161415611f50576040517f08c379a0000000000000000000000000000000000000000000000000000000008152600401611f4790613658565b60405180910390fd5b611f5c826000836120b7565b60008060008473ffffffffffffffffffffffffffffffffffffffff1673ffffffffffffffffffffffffffffffffffffffff16815260200190815260200160002054905081811015611fe2576040517f08c379a0000000000000000000000000000000000000000000000000000000008152600401611fd9906136ea565b60405180910390fd5b8181036000808573ffffffffffffffffffffffffffffffffffffffff1673ffffffffffffffffffffffffffffffffffffffff168152602001908152602001600020819055508160026000828254612039919061370a565b92505081905550600073ffffffffffffffffffffffffffffffffffffffff168373ffffffffffffffffffffffffffffffffffffffff167fddf252ad1be2c89b69c2b068fc378daa952ba7f163c4a11628f55a4df523b3ef8460405161209e9190612672565b60405180910390a36120b2836000846120bc565b505050565b505050565b505050565b6120cb8282611332565b61215a576120f08173ffffffffffffffffffffffffffffffffffffffff16601461215e565b6120fe8360001c602061215e565b60405160200161210f929190613812565b6040516020818303038152906040526040517f08c379a000000000000000000000000000000000000000000000000000000000815260040161215191906124f3565b60405180910390fd5b5050565b6060600060028360026121719190612fbc565b61217b9190612da2565b67ffffffffffffffff8111156121945761219361384c565b5b6040519080825280601f01601f1916602001820160405280156121c65781602001600182028036833780820191505090505b5090507f3000000000000000000000000000000000000000000000000000000000000000816000815181106121fe576121fd61387b565b5b60200101907effffffffffffffffffffffffffffffffffffffffffffffffffffffffffffff1916908160001a9053507f7800000000000000000000000000000000000000000000000000000000000000816001815181106122625761226161387b565b5b60200101907effffffffffffffffffffffffffffffffffffffffffffffffffffffffffffff1916908160001a905350600060018460026122a29190612fbc565b6122ac9190612da2565b90505b600181111561234c577f3031323334353637383961626364656600000000000000000000000000000000600f8616601081106122ee576122ed61387b565b5b1a60f81b8282815181106123055761230461387b565b5b60200101907effffffffffffffffffffffffffffffffffffffffffffffffffffffffffffff1916908160001a905350600485901c945080612345906138aa565b90506122af565b5060008414612390576040517f08c379a000000000000000000000000000000000000000000000000000000000815260040161238790613920565b60405180910390fd5b8091505092915050565b600080fd5b60007fffffffff0000000000000000000000000000000000000000000000000000000082169050919050565b6123d48161239f565b81146123df57600080fd5b50565b6000813590506123f1816123cb565b92915050565b60006020828403121561240d5761240c61239a565b5b600061241b848285016123e2565b91505092915050565b60008115159050919050565b61243981612424565b82525050565b60006020820190506124546000830184612430565b92915050565b600081519050919050565b600082825260208201905092915050565b60005b83811015612494578082015181840152602081019050612479565b838111156124a3576000848401525b50505050565b6000601f19601f8301169050919050565b60006124c58261245a565b6124cf8185612465565b93506124df818560208601612476565b6124e8816124a9565b840191505092915050565b6000602082019050818103600083015261250d81846124ba565b905092915050565b600073ffffffffffffffffffffffffffffffffffffffff82169050919050565b6000819050919050565b600061255a61255561255084612515565b612535565b612515565b9050919050565b600061256c8261253f565b9050919050565b600061257e82612561565b9050919050565b61258e81612573565b82525050565b60006020820190506125a96000830184612585565b92915050565b60006125ba82612515565b9050919050565b6125ca816125af565b81146125d557600080fd5b50565b6000813590506125e7816125c1565b92915050565b6000819050919050565b612600816125ed565b811461260b57600080fd5b50565b60008135905061261d816125f7565b92915050565b6000806040838503121561263a5761263961239a565b5b6000612648858286016125d8565b92505060206126598582860161260e565b9150509250929050565b61266c816125ed565b82525050565b60006020820190506126876000830184612663565b92915050565b6000806000606084860312156126a6576126a561239a565b5b60006126b4868287016125d8565b93505060206126c5868287016125d8565b92505060406126d68682870161260e565b9150509250925092565b6000819050919050565b6126f3816126e0565b81146126fe57600080fd5b50565b600081359050612710816126ea565b92915050565b60006020828403121561272c5761272b61239a565b5b600061273a84828501612701565b91505092915050565b61274c816126e0565b82525050565b60006020820190506127676000830184612743565b92915050565b6000602082840312156127835761278261239a565b5b60006127918482850161260e565b91505092915050565b600080604083850312156127b1576127b061239a565b5b60006127bf85828601612701565b92505060206127d0858286016125d8565b9150509250929050565b600060ff82169050919050565b6127f0816127da565b82525050565b600060208201905061280b60008301846127e7565b92915050565b6000602082840312156128275761282661239a565b5b6000612835848285016125d8565b91505092915050565b600061ffff82169050919050565b6128558161283e565b811461286057600080fd5b50565b6000813590506128728161284c565b92915050565b60006020828403121561288e5761288d61239a565b5b600061289c84828501612863565b91505092915050565b60006128b082612561565b9050919050565b6128c0816128a5565b82525050565b60006020820190506128db60008301846128b7565b92915050565b6000819050919050565b6128f4816128e1565b82525050565b600060208201905061290f60008301846128eb565b92915050565b61291e8161283e565b82525050565b60006020820190506129396000830184612915565b92915050565b600080604083850312156129565761295561239a565b5b6000612964858286016125d8565b9250506020612975858286016125d8565b9150509250929050565b7f4e487b7100000000000000000000000000000000000000000000000000000000600052602260045260246000fd5b600060028204905060018216806129c657607f821691505b602082108114156129da576129d961297f565b5b50919050565b7f4e487b7100000000000000000000000000000000000000000000000000000000600052601160045260246000fd5b6000612a1a826128e1565b9150612a25836128e1565b9250827f7fffffffffffffffffffffffffffffffffffffffffffffffffffffffffffffff0482116000841360008413161615612a6457612a636129e0565b5b817f80000000000000000000000000000000000000000000000000000000000000000583126000841260008413161615612aa157612aa06129e0565b5b827f80000000000000000000000000000000000000000000000000000000000000000582126000841360008412161615612ade57612add6129e0565b5b827f7fffffffffffffffffffffffffffffffffffffffffffffffffffffffffffffff0582126000841260008412161615612b1b57612b1a6129e0565b5b828202905092915050565b7f4d696e696d756d206973203120746f6b656e0000000000000000000000000000600082015250565b6000612b5c601283612465565b9150612b6782612b26565b602082019050919050565b60006020820190508181036000830152612b8b81612b4f565b9050919050565b7f4e487b7100000000000000000000000000000000000000000000000000000000600052601260045260246000fd5b6000612bcc826125ed565b9150612bd7836125ed565b925082612be757612be6612b92565b5b828204905092915050565b7f4e6f7420656e6f75676820616d6f756e74000000000000000000000000000000600082015250565b6000612c28601183612465565b9150612c3382612bf2565b602082019050919050565b60006020820190508181036000830152612c5781612c1b565b9050919050565b600081905092915050565b50565b6000612c79600083612c5e565b9150612c8482612c69565b600082019050919050565b6000612c9a82612c6c565b9150819050919050565b7f4661696c656420746f2073656e64204d61746963000000000000000000000000600082015250565b6000612cda601483612465565b9150612ce582612ca4565b602082019050919050565b60006020820190508181036000830152612d0981612ccd565b9050919050565b7f416363657373436f6e74726f6c3a2063616e206f6e6c792072656e6f756e636560008201527f20726f6c657320666f722073656c660000000000000000000000000000000000602082015250565b6000612d6c602f83612465565b9150612d7782612d10565b604082019050919050565b60006020820190508181036000830152612d9b81612d5f565b9050919050565b6000612dad826125ed565b9150612db8836125ed565b9250827fffffffffffffffffffffffffffffffffffffffffffffffffffffffffffffffff03821115612ded57612dec6129e0565b5b828201905092915050565b612e01816125af565b82525050565b6000602082019050612e1c6000830184612df8565b92915050565b600081519050612e31816125f7565b92915050565b600060208284031215612e4d57612e4c61239a565b5b6000612e5b84828501612e22565b91505092915050565b7f496e73756666696369656e742066756e64730000000000000000000000000000600082015250565b6000612e9a601283612465565b9150612ea582612e64565b602082019050919050565b60006020820190508181036000830152612ec981612e8d565b9050919050565b6000819050919050565b6000612ef5612ef0612eeb84612ed0565b612535565b61283e565b9050919050565b612f0581612eda565b82525050565b6000608082019050612f206000830187612df8565b612f2d6020830186612663565b612f3a6040830185612df8565b612f476060830184612efc565b95945050505050565b7f4e6f207265736572766174696f6e206578697374730000000000000000000000600082015250565b6000612f86601583612465565b9150612f9182612f50565b602082019050919050565b60006020820190508181036000830152612fb581612f79565b9050919050565b6000612fc7826125ed565b9150612fd2836125ed565b9250817fffffffffffffffffffffffffffffffffffffffffffffffffffffffffffffffff048311821515161561300b5761300a6129e0565b5b828202905092915050565b7f5468657265206973206e6f7468696e67207374616b6564000000000000000000600082015250565b600061304c601783612465565b915061305782613016565b602082019050919050565b6000602082019050818103600083015261307b8161303f565b9050919050565b60006060820190506130976000830186612df8565b6130a46020830185612663565b6130b16040830184612df8565b949350505050565b600069ffffffffffffffffffff82169050919050565b6130d8816130b9565b81146130e357600080fd5b50565b6000815190506130f5816130cf565b92915050565b613104816128e1565b811461310f57600080fd5b50565b600081519050613121816130fb565b92915050565b600080600080600060a086880312156131435761314261239a565b5b6000613151888289016130e6565b955050602061316288828901613112565b945050604061317388828901612e22565b935050606061318488828901612e22565b9250506080613195888289016130e6565b9150509295509295909350565b7f45524332303a2064656372656173656420616c6c6f77616e63652062656c6f7760008201527f207a65726f000000000000000000000000000000000000000000000000000000602082015250565b60006131fe602583612465565b9150613209826131a2565b604082019050919050565b6000602082019050818103600083015261322d816131f1565b9050919050565b7f45524332303a20617070726f76652066726f6d20746865207a65726f2061646460008201527f7265737300000000000000000000000000000000000000000000000000000000602082015250565b6000613290602483612465565b915061329b82613234565b604082019050919050565b600060208201905081810360008301526132bf81613283565b9050919050565b7f45524332303a20617070726f766520746f20746865207a65726f20616464726560008201527f7373000000000000000000000000000000000000000000000000000000000000602082015250565b6000613322602283612465565b915061332d826132c6565b604082019050919050565b6000602082019050818103600083015261335181613315565b9050919050565b7f45524332303a20696e73756666696369656e7420616c6c6f77616e6365000000600082015250565b600061338e601d83612465565b915061339982613358565b602082019050919050565b600060208201905081810360008301526133bd81613381565b9050919050565b7f45524332303a207472616e736665722066726f6d20746865207a65726f20616460008201527f6472657373000000000000000000000000000000000000000000000000000000602082015250565b6000613420602583612465565b915061342b826133c4565b604082019050919050565b6000602082019050818103600083015261344f81613413565b9050919050565b7f45524332303a207472616e7366657220746f20746865207a65726f206164647260008201527f6573730000000000000000000000000000000000000000000000000000000000602082015250565b60006134b2602383612465565b91506134bd82613456565b604082019050919050565b600060208201905081810360008301526134e1816134a5565b9050919050565b7f45524332303a207472616e7366657220616d6f756e742065786365656473206260008201527f616c616e63650000000000000000000000000000000000000000000000000000602082015250565b6000613544602683612465565b915061354f826134e8565b604082019050919050565b6000602082019050818103600083015261357381613537565b9050919050565b7f45524332303a206d696e7420746f20746865207a65726f206164647265737300600082015250565b60006135b0601f83612465565b91506135bb8261357a565b602082019050919050565b600060208201905081810360008301526135df816135a3565b9050919050565b7f45524332303a206275726e2066726f6d20746865207a65726f2061646472657360008201527f7300000000000000000000000000000000000000000000000000000000000000602082015250565b6000613642602183612465565b915061364d826135e6565b604082019050919050565b6000602082019050818103600083015261367181613635565b9050919050565b7f45524332303a206275726e20616d6f756e7420657863656564732062616c616e60008201527f6365000000000000000000000000000000000000000000000000000000000000602082015250565b60006136d4602283612465565b91506136df82613678565b604082019050919050565b60006020820190508181036000830152613703816136c7565b9050919050565b6000613715826125ed565b9150613720836125ed565b925082821015613733576137326129e0565b5b828203905092915050565b600081905092915050565b7f416363657373436f6e74726f6c3a206163636f756e7420000000000000000000600082015250565b600061377f60178361373e565b915061378a82613749565b601782019050919050565b60006137a08261245a565b6137aa818561373e565b93506137ba818560208601612476565b80840191505092915050565b7f206973206d697373696e6720726f6c6520000000000000000000000000000000600082015250565b60006137fc60118361373e565b9150613807826137c6565b601182019050919050565b600061381d82613772565b91506138298285613795565b9150613834826137ef565b91506138408284613795565b91508190509392505050565b7f4e487b7100000000000000000000000000000000000000000000000000000000600052604160045260246000fd5b7f4e487b7100000000000000000000000000000000000000000000000000000000600052603260045260246000fd5b60006138b5826125ed565b915060008214156138c9576138c86129e0565b5b600182039050919050565b7f537472696e67733a20686578206c656e67746820696e73756666696369656e74600082015250565b600061390a602083612465565b9150613915826138d4565b602082019050919050565b60006020820190508181036000830152613939816138fd565b905091905056fea2646970667358221220653ac74d23c01ff3732674626f477550b47438ad93f6834192433e6881e140f764736f6c634300080a0033",
  "devdoc": {
    "author": "Alessandro Maci",
    "kind": "dev",
    "methods": {
      "addRestaurant(address)": {
        "details": "adding restaurants that can call the verify functions"
      },
      "allowance(address,address)": {
        "details": "See {IERC20-allowance}."
      },
      "approve(address,uint256)": {
        "details": "See {IERC20-approve}. NOTE: If `amount` is the maximum `uint256`, the allowance is not updated on `transferFrom`. This is semantically equivalent to an infinite approval. Requirements: - `spender` cannot be the zero address."
      },
      "balanceOf(address)": {
        "details": "See {IERC20-balanceOf}."
      },
      "buyToken(uint256)": {
        "details": "top-up functionality to buy tokens in exchange of chain native currency"
      },
      "decimals()": {
        "details": "Returns the number of decimals used to get its user representation. For example, if `decimals` equals `2`, a balance of `505` tokens should be displayed to a user as `5.05` (`505 / 10 ** 2`). Tokens usually opt for a value of 18, imitating the relationship between Ether and Wei. This is the value {ERC20} uses, unless this function is overridden; NOTE: This information is only used for _display_ purposes: it in no way affects any of the arithmetic of the contract, including {IERC20-balanceOf} and {IERC20-transfer}."
      },
      "decreaseAllowance(address,uint256)": {
        "details": "Atomically decreases the allowance granted to `spender` by the caller. This is an alternative to {approve} that can be used as a mitigation for problems described in {IERC20-approve}. Emits an {Approval} event indicating the updated allowance. Requirements: - `spender` cannot be the zero address. - `spender` must have allowance for the caller of at least `subtractedValue`."
      },
      "getRoleAdmin(bytes32)": {
        "details": "Returns the admin role that controls `role`. See {grantRole} and {revokeRole}. To change a role's admin, use {_setRoleAdmin}."
      },
      "grantRole(bytes32,address)": {
        "details": "Grants `role` to `account`. If `account` had not been already granted `role`, emits a {RoleGranted} event. Requirements: - the caller must have ``role``'s admin role. May emit a {RoleGranted} event."
      },
      "hasRole(bytes32,address)": {
        "details": "Returns `true` if `account` has been granted `role`."
      },
      "increaseAllowance(address,uint256)": {
        "details": "Atomically increases the allowance granted to `spender` by the caller. This is an alternative to {approve} that can be used as a mitigation for problems described in {IERC20-approve}. Emits an {Approval} event indicating the updated allowance. Requirements: - `spender` cannot be the zero address."
      },
      "name()": {
        "details": "Returns the name of the token."
      },
      "renounceRole(bytes32,address)": {
        "details": "Revokes `role` from the calling account. Roles are often managed via {grantRole} and {revokeRole}: this function's purpose is to provide a mechanism for accounts to lose their privileges if they are compromised (such as when a trusted device is misplaced). If the calling account had been revoked `role`, emits a {RoleRevoked} event. Requirements: - the caller must be `account`. May emit a {RoleRevoked} event."
      },
      "reserve(address,uint256)": {
        "details": "reserving a restaurant appointment and saving it as an entry"
      },
      "revokeRole(bytes32,address)": {
        "details": "Revokes `role` from `account`. If `account` had been granted `role`, emits a {RoleRevoked} event. Requirements: - the caller must have ``role``'s admin role. May emit a {RoleRevoked} event."
      },
      "supplyLiquidity(uint256)": {
        "details": "using CRWCP token to supply liquidity in AAVE"
      },
      "supportsInterface(bytes4)": {
        "details": "See {IERC165-supportsInterface}."
      },
      "symbol()": {
        "details": "Returns the symbol of the token, usually a shorter version of the name."
      },
      "totalSupply()": {
        "details": "See {IERC20-totalSupply}."
      },
      "transfer(address,uint256)": {
        "details": "See {IERC20-transfer}. Requirements: - `to` cannot be the zero address. - the caller must have a balance of at least `amount`."
      },
      "transferFrom(address,address,uint256)": {
        "details": "See {IERC20-transferFrom}. Emits an {Approval} event indicating the updated allowance. This is not required by the EIP. See the note at the beginning of {ERC20}. NOTE: Does not update the allowance if the current allowance is the maximum `uint256`. Requirements: - `from` and `to` cannot be the zero address. - `from` must have a balance of at least `amount`. - the caller must have allowance for ``from``'s tokens of at least `amount`."
      },
      "verify(address,uint256)": {
        "details": "verifying customers' sale and transferring the CRW CP token to the customer in proportion to the sale"
      },
      "withdrawLiquidity()": {
        "details": "closing the AAVE deposit position and the equivalent amount of CRWCP is transferred back to users"
      }
    },
    "title": "CRW-CP contract",
    "version": 1
  },
  "userdoc": {
    "kind": "user",
    "methods": {
      "addRestaurant(address)": {
        "notice": "users receive 3 tokens for each new restaurant added"
      },
      "buyToken(uint256)": {
        "notice": "The value of 1 token is equal to 1 dollar. This is calculated by using a price feed matic/usd"
      },
      "reserve(address,uint256)": {
        "notice": "reserving also whitelist the restaurant"
      },
      "verify(address,uint256)": {
        "notice": "the amount must have 16 decimals"
      }
    },
    "notice": "Not all functions have been tested*",
    "version": 1
  },
  "storageLayout": {
    "storage": [
      {
        "astId": 1652,
        "contract": "contracts/CRWCP.sol:CRWCP",
        "label": "_balances",
        "offset": 0,
        "slot": "0",
        "type": "t_mapping(t_address,t_uint256)"
      },
      {
        "astId": 1658,
        "contract": "contracts/CRWCP.sol:CRWCP",
        "label": "_allowances",
        "offset": 0,
        "slot": "1",
        "type": "t_mapping(t_address,t_mapping(t_address,t_uint256))"
      },
      {
        "astId": 1660,
        "contract": "contracts/CRWCP.sol:CRWCP",
        "label": "_totalSupply",
        "offset": 0,
        "slot": "2",
        "type": "t_uint256"
      },
      {
        "astId": 1662,
        "contract": "contracts/CRWCP.sol:CRWCP",
        "label": "_name",
        "offset": 0,
        "slot": "3",
        "type": "t_string_storage"
      },
      {
        "astId": 1664,
        "contract": "contracts/CRWCP.sol:CRWCP",
        "label": "_symbol",
        "offset": 0,
        "slot": "4",
        "type": "t_string_storage"
      },
      {
        "astId": 1268,
        "contract": "contracts/CRWCP.sol:CRWCP",
        "label": "_roles",
        "offset": 0,
        "slot": "5",
        "type": "t_mapping(t_bytes32,t_struct(RoleData)1263_storage)"
      },
      {
        "astId": 2625,
        "contract": "contracts/CRWCP.sol:CRWCP",
        "label": "priceFeed",
        "offset": 0,
        "slot": "6",
        "type": "t_contract(AggregatorV3Interface)1243"
      },
      {
        "astId": 2631,
        "contract": "contracts/CRWCP.sol:CRWCP",
        "label": "AAVE_POOL",
        "offset": 0,
        "slot": "7",
        "type": "t_contract(IPool)636"
      },
      {
        "astId": 2637,
        "contract": "contracts/CRWCP.sol:CRWCP",
        "label": "USDC",
        "offset": 0,
        "slot": "8",
        "type": "t_contract(IERC20)2300"
      },
      {
        "astId": 2645,
        "contract": "contracts/CRWCP.sol:CRWCP",
        "label": "percentage",
        "offset": 20,
        "slot": "8",
        "type": "t_uint16"
      },
      {
        "astId": 2651,
        "contract": "contracts/CRWCP.sol:CRWCP",
        "label": "reservation",
        "offset": 0,
        "slot": "9",
        "type": "t_mapping(t_address,t_mapping(t_address,t_uint256))"
      },
      {
        "astId": 2655,
        "contract": "contracts/CRWCP.sol:CRWCP",
        "label": "tokenStaked",
        "offset": 0,
        "slot": "10",
        "type": "t_mapping(t_address,t_uint256)"
      }
    ],
    "types": {
      "t_address": {
        "encoding": "inplace",
        "label": "address",
        "numberOfBytes": "20"
      },
      "t_bool": {
        "encoding": "inplace",
        "label": "bool",
        "numberOfBytes": "1"
      },
      "t_bytes32": {
        "encoding": "inplace",
        "label": "bytes32",
        "numberOfBytes": "32"
      },
      "t_contract(AggregatorV3Interface)1243": {
        "encoding": "inplace",
        "label": "contract AggregatorV3Interface",
        "numberOfBytes": "20"
      },
      "t_contract(IERC20)2300": {
        "encoding": "inplace",
        "label": "contract IERC20",
        "numberOfBytes": "20"
      },
      "t_contract(IPool)636": {
        "encoding": "inplace",
        "label": "contract IPool",
        "numberOfBytes": "20"
      },
      "t_mapping(t_address,t_bool)": {
        "encoding": "mapping",
        "key": "t_address",
        "label": "mapping(address => bool)",
        "numberOfBytes": "32",
        "value": "t_bool"
      },
      "t_mapping(t_address,t_mapping(t_address,t_uint256))": {
        "encoding": "mapping",
        "key": "t_address",
        "label": "mapping(address => mapping(address => uint256))",
        "numberOfBytes": "32",
        "value": "t_mapping(t_address,t_uint256)"
      },
      "t_mapping(t_address,t_uint256)": {
        "encoding": "mapping",
        "key": "t_address",
        "label": "mapping(address => uint256)",
        "numberOfBytes": "32",
        "value": "t_uint256"
      },
      "t_mapping(t_bytes32,t_struct(RoleData)1263_storage)": {
        "encoding": "mapping",
        "key": "t_bytes32",
        "label": "mapping(bytes32 => struct AccessControl.RoleData)",
        "numberOfBytes": "32",
        "value": "t_struct(RoleData)1263_storage"
      },
      "t_string_storage": {
        "encoding": "bytes",
        "label": "string",
        "numberOfBytes": "32"
      },
      "t_struct(RoleData)1263_storage": {
        "encoding": "inplace",
        "label": "struct AccessControl.RoleData",
        "members": [
          {
            "astId": 1260,
            "contract": "contracts/CRWCP.sol:CRWCP",
            "label": "members",
            "offset": 0,
            "slot": "0",
            "type": "t_mapping(t_address,t_bool)"
          },
          {
            "astId": 1262,
            "contract": "contracts/CRWCP.sol:CRWCP",
            "label": "adminRole",
            "offset": 0,
            "slot": "1",
            "type": "t_bytes32"
          }
        ],
        "numberOfBytes": "64"
      },
      "t_uint16": {
        "encoding": "inplace",
        "label": "uint16",
        "numberOfBytes": "2"
      },
      "t_uint256": {
        "encoding": "inplace",
        "label": "uint256",
        "numberOfBytes": "32"
      }
    }
  }
}