{
  "address": "0x8ac5eE52F70AE01dB914bE459D8B3d50126fd6aE",
  "abi": [
    {
      "inputs": [],
      "stateMutability": "nonpayable",
      "type": "constructor"
    },
    {
      "anonymous": false,
      "inputs": [
        {
          "indexed": true,
          "internalType": "address",
          "name": "owner",
          "type": "address"
        },
        {
          "indexed": true,
          "internalType": "address",
          "name": "spender",
          "type": "address"
        },
        {
          "indexed": false,
          "internalType": "uint256",
          "name": "value",
          "type": "uint256"
        }
      ],
      "name": "Approval",
      "type": "event"
    },
    {
      "anonymous": false,
      "inputs": [
        {
          "indexed": true,
          "internalType": "address",
          "name": "receiver",
          "type": "address"
        },
        {
          "indexed": false,
          "internalType": "uint256",
          "name": "_amount",
          "type": "uint256"
        }
      ],
      "name": "Mint",
      "type": "event"
    },
    {
      "anonymous": false,
      "inputs": [
        {
          "indexed": true,
          "internalType": "bytes32",
          "name": "role",
          "type": "bytes32"
        },
        {
          "indexed": true,
          "internalType": "bytes32",
          "name": "previousAdminRole",
          "type": "bytes32"
        },
        {
          "indexed": true,
          "internalType": "bytes32",
          "name": "newAdminRole",
          "type": "bytes32"
        }
      ],
      "name": "RoleAdminChanged",
      "type": "event"
    },
    {
      "anonymous": false,
      "inputs": [
        {
          "indexed": true,
          "internalType": "bytes32",
          "name": "role",
          "type": "bytes32"
        },
        {
          "indexed": true,
          "internalType": "address",
          "name": "account",
          "type": "address"
        },
        {
          "indexed": true,
          "internalType": "address",
          "name": "sender",
          "type": "address"
        }
      ],
      "name": "RoleGranted",
      "type": "event"
    },
    {
      "anonymous": false,
      "inputs": [
        {
          "indexed": true,
          "internalType": "bytes32",
          "name": "role",
          "type": "bytes32"
        },
        {
          "indexed": true,
          "internalType": "address",
          "name": "account",
          "type": "address"
        },
        {
          "indexed": true,
          "internalType": "address",
          "name": "sender",
          "type": "address"
        }
      ],
      "name": "RoleRevoked",
      "type": "event"
    },
    {
      "anonymous": false,
      "inputs": [
        {
          "indexed": true,
          "internalType": "address",
          "name": "from",
          "type": "address"
        },
        {
          "indexed": true,
          "internalType": "address",
          "name": "to",
          "type": "address"
        },
        {
          "indexed": false,
          "internalType": "uint256",
          "name": "value",
          "type": "uint256"
        }
      ],
      "name": "Transfer",
      "type": "event"
    },
    {
      "inputs": [],
      "name": "DEFAULT_ADMIN_ROLE",
      "outputs": [
        {
          "internalType": "bytes32",
          "name": "",
          "type": "bytes32"
        }
      ],
      "stateMutability": "view",
      "type": "function"
    },
    {
      "inputs": [],
      "name": "RESTAURANT",
      "outputs": [
        {
          "internalType": "bytes32",
          "name": "",
          "type": "bytes32"
        }
      ],
      "stateMutability": "view",
      "type": "function"
    },
    {
      "inputs": [
        {
          "internalType": "address",
          "name": "_newRestaurant",
          "type": "address"
        }
      ],
      "name": "addRestaurant",
      "outputs": [],
      "stateMutability": "nonpayable",
      "type": "function"
    },
    {
      "inputs": [
        {
          "internalType": "address",
          "name": "owner",
          "type": "address"
        },
        {
          "internalType": "address",
          "name": "spender",
          "type": "address"
        }
      ],
      "name": "allowance",
      "outputs": [
        {
          "internalType": "uint256",
          "name": "",
          "type": "uint256"
        }
      ],
      "stateMutability": "view",
      "type": "function"
    },
    {
      "inputs": [
        {
          "internalType": "address",
          "name": "spender",
          "type": "address"
        },
        {
          "internalType": "uint256",
          "name": "amount",
          "type": "uint256"
        }
      ],
      "name": "approve",
      "outputs": [
        {
          "internalType": "bool",
          "name": "",
          "type": "bool"
        }
      ],
      "stateMutability": "nonpayable",
      "type": "function"
    },
    {
      "inputs": [
        {
          "internalType": "address",
          "name": "account",
          "type": "address"
        }
      ],
      "name": "balanceOf",
      "outputs": [
        {
          "internalType": "uint256",
          "name": "",
          "type": "uint256"
        }
      ],
      "stateMutability": "view",
      "type": "function"
    },
    {
      "inputs": [
        {
          "internalType": "uint256",
          "name": "_amount",
          "type": "uint256"
        }
      ],
      "name": "buyToken",
      "outputs": [],
      "stateMutability": "payable",
      "type": "function"
    },
    {
      "inputs": [],
      "name": "decimals",
      "outputs": [
        {
          "internalType": "uint8",
          "name": "",
          "type": "uint8"
        }
      ],
      "stateMutability": "view",
      "type": "function"
    },
    {
      "inputs": [
        {
          "internalType": "address",
          "name": "spender",
          "type": "address"
        },
        {
          "internalType": "uint256",
          "name": "subtractedValue",
          "type": "uint256"
        }
      ],
      "name": "decreaseAllowance",
      "outputs": [
        {
          "internalType": "bool",
          "name": "",
          "type": "bool"
        }
      ],
      "stateMutability": "nonpayable",
      "type": "function"
    },
    {
      "inputs": [],
      "name": "getLatestPrice",
      "outputs": [
        {
          "internalType": "int256",
          "name": "",
          "type": "int256"
        }
      ],
      "stateMutability": "view",
      "type": "function"
    },
    {
      "inputs": [
        {
          "internalType": "bytes32",
          "name": "role",
          "type": "bytes32"
        }
      ],
      "name": "getRoleAdmin",
      "outputs": [
        {
          "internalType": "bytes32",
          "name": "",
          "type": "bytes32"
        }
      ],
      "stateMutability": "view",
      "type": "function"
    },
    {
      "inputs": [
        {
          "internalType": "bytes32",
          "name": "role",
          "type": "bytes32"
        },
        {
          "internalType": "address",
          "name": "account",
          "type": "address"
        }
      ],
      "name": "grantRole",
      "outputs": [],
      "stateMutability": "nonpayable",
      "type": "function"
    },
    {
      "inputs": [
        {
          "internalType": "bytes32",
          "name": "role",
          "type": "bytes32"
        },
        {
          "internalType": "address",
          "name": "account",
          "type": "address"
        }
      ],
      "name": "hasRole",
      "outputs": [
        {
          "internalType": "bool",
          "name": "",
          "type": "bool"
        }
      ],
      "stateMutability": "view",
      "type": "function"
    },
    {
      "inputs": [
        {
          "internalType": "address",
          "name": "spender",
          "type": "address"
        },
        {
          "internalType": "uint256",
          "name": "addedValue",
          "type": "uint256"
        }
      ],
      "name": "increaseAllowance",
      "outputs": [
        {
          "internalType": "bool",
          "name": "",
          "type": "bool"
        }
      ],
      "stateMutability": "nonpayable",
      "type": "function"
    },
    {
      "inputs": [],
      "name": "name",
      "outputs": [
        {
          "internalType": "string",
          "name": "",
          "type": "string"
        }
      ],
      "stateMutability": "view",
      "type": "function"
    },
    {
      "inputs": [],
      "name": "percentage",
      "outputs": [
        {
          "internalType": "uint16",
          "name": "",
          "type": "uint16"
        }
      ],
      "stateMutability": "view",
      "type": "function"
    },
    {
      "inputs": [
        {
          "internalType": "bytes32",
          "name": "role",
          "type": "bytes32"
        },
        {
          "internalType": "address",
          "name": "account",
          "type": "address"
        }
      ],
      "name": "renounceRole",
      "outputs": [],
      "stateMutability": "nonpayable",
      "type": "function"
    },
    {
      "inputs": [
        {
          "internalType": "address",
          "name": "_restaurant",
          "type": "address"
        },
        {
          "internalType": "uint256",
          "name": "_timestamp",
          "type": "uint256"
        }
      ],
      "name": "reserve",
      "outputs": [],
      "stateMutability": "nonpayable",
      "type": "function"
    },
    {
      "inputs": [
        {
          "internalType": "bytes32",
          "name": "role",
          "type": "bytes32"
        },
        {
          "internalType": "address",
          "name": "account",
          "type": "address"
        }
      ],
      "name": "revokeRole",
      "outputs": [],
      "stateMutability": "nonpayable",
      "type": "function"
    },
    {
      "inputs": [
        {
          "internalType": "bytes4",
          "name": "interfaceId",
          "type": "bytes4"
        }
      ],
      "name": "supportsInterface",
      "outputs": [
        {
          "internalType": "bool",
          "name": "",
          "type": "bool"
        }
      ],
      "stateMutability": "view",
      "type": "function"
    },
    {
      "inputs": [],
      "name": "symbol",
      "outputs": [
        {
          "internalType": "string",
          "name": "",
          "type": "string"
        }
      ],
      "stateMutability": "view",
      "type": "function"
    },
    {
      "inputs": [],
      "name": "totalSupply",
      "outputs": [
        {
          "internalType": "uint256",
          "name": "",
          "type": "uint256"
        }
      ],
      "stateMutability": "view",
      "type": "function"
    },
    {
      "inputs": [
        {
          "internalType": "address",
          "name": "to",
          "type": "address"
        },
        {
          "internalType": "uint256",
          "name": "amount",
          "type": "uint256"
        }
      ],
      "name": "transfer",
      "outputs": [
        {
          "internalType": "bool",
          "name": "",
          "type": "bool"
        }
      ],
      "stateMutability": "nonpayable",
      "type": "function"
    },
    {
      "inputs": [
        {
          "internalType": "address",
          "name": "from",
          "type": "address"
        },
        {
          "internalType": "address",
          "name": "to",
          "type": "address"
        },
        {
          "internalType": "uint256",
          "name": "amount",
          "type": "uint256"
        }
      ],
      "name": "transferFrom",
      "outputs": [
        {
          "internalType": "bool",
          "name": "",
          "type": "bool"
        }
      ],
      "stateMutability": "nonpayable",
      "type": "function"
    },
    {
      "inputs": [
        {
          "internalType": "uint16",
          "name": "_percentage",
          "type": "uint16"
        }
      ],
      "name": "updatePercentage",
      "outputs": [],
      "stateMutability": "nonpayable",
      "type": "function"
    },
    {
      "inputs": [
        {
          "internalType": "address",
          "name": "_customer",
          "type": "address"
        },
        {
          "internalType": "uint256",
          "name": "_amount",
          "type": "uint256"
        }
      ],
      "name": "verify",
      "outputs": [],
      "stateMutability": "nonpayable",
      "type": "function"
    },
    {
      "stateMutability": "payable",
      "type": "receive"
    }
  ],
  "transactionHash": "0x78526b1e5851fae1ee9be03169a2cf2332502d327ae5adb0386bdcc644d31a6b",
  "args": [],
  "numDeployments": 1,
  "solcInputHash": "a4d83799fecde72639e936f8ac250f8f",
  "bytecode": "0x60806040526005600660146101000a81548161ffff021916908361ffff1602179055503480156200002f57600080fd5b506040518060400160405280600681526020017f43525720435000000000000000000000000000000000000000000000000000008152506040518060400160405280600681526020017f43525720435000000000000000000000000000000000000000000000000000008152508160039081620000ad919062000543565b508060049081620000bf919062000543565b50505073d0d5e3db44de05e9f294bb0a3beeaf030de24ada600660006101000a81548173ffffffffffffffffffffffffffffffffffffffff021916908373ffffffffffffffffffffffffffffffffffffffff1602179055506200012c6000801b336200016460201b60201c565b6200015e7fa84bc650dcfe8cf5dd2d367b3dc1a91a13f026e1369e505155272a42b6fec9ff336200016460201b60201c565b6200062a565b6200017682826200025660201b60201c565b620002525760016005600084815260200190815260200160002060000160008373ffffffffffffffffffffffffffffffffffffffff1673ffffffffffffffffffffffffffffffffffffffff16815260200190815260200160002060006101000a81548160ff021916908315150217905550620001f7620002c160201b60201c565b73ffffffffffffffffffffffffffffffffffffffff168173ffffffffffffffffffffffffffffffffffffffff16837f2f8788117e7eff1d82e926ec794901d17c78024a50270940304540a733656f0d60405160405180910390a45b5050565b60006005600084815260200190815260200160002060000160008373ffffffffffffffffffffffffffffffffffffffff1673ffffffffffffffffffffffffffffffffffffffff16815260200190815260200160002060009054906101000a900460ff16905092915050565b600033905090565b600081519050919050565b7f4e487b7100000000000000000000000000000000000000000000000000000000600052604160045260246000fd5b7f4e487b7100000000000000000000000000000000000000000000000000000000600052602260045260246000fd5b600060028204905060018216806200034b57607f821691505b60208210810362000361576200036062000303565b5b50919050565b60008190508160005260206000209050919050565b60006020601f8301049050919050565b600082821b905092915050565b600060088302620003cb7fffffffffffffffffffffffffffffffffffffffffffffffffffffffffffffffff826200038c565b620003d786836200038c565b95508019841693508086168417925050509392505050565b6000819050919050565b6000819050919050565b6000620004246200041e6200041884620003ef565b620003f9565b620003ef565b9050919050565b6000819050919050565b620004408362000403565b620004586200044f826200042b565b84845462000399565b825550505050565b600090565b6200046f62000460565b6200047c81848462000435565b505050565b5b81811015620004a4576200049860008262000465565b60018101905062000482565b5050565b601f821115620004f357620004bd8162000367565b620004c8846200037c565b81016020851015620004d8578190505b620004f0620004e7856200037c565b83018262000481565b50505b505050565b600082821c905092915050565b60006200051860001984600802620004f8565b1980831691505092915050565b600062000533838362000505565b9150826002028217905092915050565b6200054e82620002c9565b67ffffffffffffffff8111156200056a5762000569620002d4565b5b62000576825462000332565b62000583828285620004a8565b600060209050601f831160018114620005bb5760008415620005a6578287015190505b620005b2858262000525565b86555062000622565b601f198416620005cb8662000367565b60005b82811015620005f557848901518255600182019150602085019450602081019050620005ce565b8683101562000615578489015162000611601f89168262000505565b8355505b6001600288020188555050505b505050505050565b612c81806200063a6000396000f3fe6080604052600436106101855760003560e01c80636704fe9f116100d1578063a457c2d71161008a578063cc47a40b11610064578063cc47a40b146105cc578063d547741f146105f5578063d6c25a2f1461061e578063dd62ed3e146106495761018c565b8063a457c2d714610527578063a9059cbb14610564578063c78ad77f146105a15761018c565b80636704fe9f1461040357806370a082311461042c5780638e15f4731461046957806391d148541461049457806395d89b41146104d1578063a217fddf146104fc5761018c565b80632d296bf11161013e578063328a8cc411610118578063328a8cc41461034b57806336568abe14610374578063395093511461039d5780635860f7f6146103da5761018c565b80632d296bf1146102db5780632f2ff15d146102f7578063313ce567146103205761018c565b806301ffc9a71461019157806306fdde03146101ce578063095ea7b3146101f957806318160ddd1461023657806323b872dd14610261578063248a9ca31461029e5761018c565b3661018c57005b600080fd5b34801561019d57600080fd5b506101b860048036038101906101b39190611c52565b610686565b6040516101c59190611c9a565b60405180910390f35b3480156101da57600080fd5b506101e3610700565b6040516101f09190611d45565b60405180910390f35b34801561020557600080fd5b50610220600480360381019061021b9190611dfb565b610792565b60405161022d9190611c9a565b60405180910390f35b34801561024257600080fd5b5061024b6107b5565b6040516102589190611e4a565b60405180910390f35b34801561026d57600080fd5b5061028860048036038101906102839190611e65565b6107bf565b6040516102959190611c9a565b60405180910390f35b3480156102aa57600080fd5b506102c560048036038101906102c09190611eee565b6107ee565b6040516102d29190611f2a565b60405180910390f35b6102f560048036038101906102f09190611f45565b61080e565b005b34801561030357600080fd5b5061031e60048036038101906103199190611f72565b6109bc565b005b34801561032c57600080fd5b506103356109dd565b6040516103429190611fce565b60405180910390f35b34801561035757600080fd5b50610372600480360381019061036d9190611fe9565b6109e6565b005b34801561038057600080fd5b5061039b60048036038101906103969190611f72565b610a21565b005b3480156103a957600080fd5b506103c460048036038101906103bf9190611dfb565b610aa4565b6040516103d19190611c9a565b60405180910390f35b3480156103e657600080fd5b5061040160048036038101906103fc9190612050565b610adb565b005b34801561040f57600080fd5b5061042a60048036038101906104259190611dfb565b610b09565b005b34801561043857600080fd5b50610453600480360381019061044e9190611fe9565b610c80565b6040516104609190611e4a565b60405180910390f35b34801561047557600080fd5b5061047e610cc8565b60405161048b9190612096565b60405180910390f35b3480156104a057600080fd5b506104bb60048036038101906104b69190611f72565b610d69565b6040516104c89190611c9a565b60405180910390f35b3480156104dd57600080fd5b506104e6610dd4565b6040516104f39190611d45565b60405180910390f35b34801561050857600080fd5b50610511610e66565b60405161051e9190611f2a565b60405180910390f35b34801561053357600080fd5b5061054e60048036038101906105499190611dfb565b610e6d565b60405161055b9190611c9a565b60405180910390f35b34801561057057600080fd5b5061058b60048036038101906105869190611dfb565b610ee4565b6040516105989190611c9a565b60405180910390f35b3480156105ad57600080fd5b506105b6610f07565b6040516105c391906120c0565b60405180910390f35b3480156105d857600080fd5b506105f360048036038101906105ee9190611dfb565b610f1b565b005b34801561060157600080fd5b5061061c60048036038101906106179190611f72565b610fca565b005b34801561062a57600080fd5b50610633610feb565b6040516106409190611f2a565b60405180910390f35b34801561065557600080fd5b50610670600480360381019061066b91906120db565b61100f565b60405161067d9190611e4a565b60405180910390f35b60007f7965db0b000000000000000000000000000000000000000000000000000000007bffffffffffffffffffffffffffffffffffffffffffffffffffffffff1916827bffffffffffffffffffffffffffffffffffffffffffffffffffffffff191614806106f957506106f882611096565b5b9050919050565b60606003805461070f9061214a565b80601f016020809104026020016040519081016040528092919081815260200182805461073b9061214a565b80156107885780601f1061075d57610100808354040283529160200191610788565b820191906000526020600020905b81548152906001019060200180831161076b57829003601f168201915b5050505050905090565b60008061079d611100565b90506107aa818585611108565b600191505092915050565b6000600254905090565b6000806107ca611100565b90506107d78582856112d1565b6107e285858561135d565b60019150509392505050565b600060056000838152602001908152602001600020600101549050919050565b6000670aa27cb4331e80009050662386f26fc10000821015610865576040517f08c379a000000000000000000000000000000000000000000000000000000000815260040161085c906121c7565b60405180910390fd5b80826108719190612245565b3410156108b3576040517f08c379a00000000000000000000000000000000000000000000000000000000081526004016108aa906122c2565b60405180910390fd5b60003073ffffffffffffffffffffffffffffffffffffffff16346040516108d990612313565b60006040518083038185875af1925050503d8060008114610916576040519150601f19603f3d011682016040523d82523d6000602084013e61091b565b606091505b505090508061095f576040517f08c379a000000000000000000000000000000000000000000000000000000000815260040161095690612374565b60405180910390fd5b61096933846115dc565b3373ffffffffffffffffffffffffffffffffffffffff167f0f6798a560793a54c3bcfe86a93cde1e73087d944c0ea20544137d4121396885846040516109af9190611e4a565b60405180910390a2505050565b6109c5826107ee565b6109ce8161173b565b6109d8838361174f565b505050565b60006012905090565b6000801b6109f38161173b565b610a1d7fa84bc650dcfe8cf5dd2d367b3dc1a91a13f026e1369e505155272a42b6fec9ff8361174f565b5050565b610a29611100565b73ffffffffffffffffffffffffffffffffffffffff168173ffffffffffffffffffffffffffffffffffffffff1614610a96576040517f08c379a0000000000000000000000000000000000000000000000000000000008152600401610a8d90612406565b60405180910390fd5b610aa08282611830565b5050565b600080610aaf611100565b9050610ad0818585610ac1858961100f565b610acb9190612426565b611108565b600191505092915050565b6000801b610ae88161173b565b81600660146101000a81548161ffff021916908361ffff1602179055505050565b7fa84bc650dcfe8cf5dd2d367b3dc1a91a13f026e1369e505155272a42b6fec9ff610b338161173b565b6000600760008573ffffffffffffffffffffffffffffffffffffffff1673ffffffffffffffffffffffffffffffffffffffff16815260200190815260200160002060003373ffffffffffffffffffffffffffffffffffffffff1673ffffffffffffffffffffffffffffffffffffffff1681526020019081526020016000205403610bf2576040517f08c379a0000000000000000000000000000000000000000000000000000000008152600401610be9906124a6565b60405180910390fd5b60006064600660149054906101000a900461ffff1661ffff1684610c1691906124c6565b610c209190612245565b9050610c2c84826115dc565b8373ffffffffffffffffffffffffffffffffffffffff167f0f6798a560793a54c3bcfe86a93cde1e73087d944c0ea20544137d412139688582604051610c729190611e4a565b60405180910390a250505050565b60008060008373ffffffffffffffffffffffffffffffffffffffff1673ffffffffffffffffffffffffffffffffffffffff168152602001908152602001600020549050919050565b600080600660009054906101000a900473ffffffffffffffffffffffffffffffffffffffff1673ffffffffffffffffffffffffffffffffffffffff1663feaf968c6040518163ffffffff1660e01b815260040160a060405180830381865afa158015610d38573d6000803e3d6000fd5b505050506040513d601f19601f82011682018060405250810190610d5c919061258b565b5050509150508091505090565b60006005600084815260200190815260200160002060000160008373ffffffffffffffffffffffffffffffffffffffff1673ffffffffffffffffffffffffffffffffffffffff16815260200190815260200160002060009054906101000a900460ff16905092915050565b606060048054610de39061214a565b80601f0160208091040260200160405190810160405280929190818152602001828054610e0f9061214a565b8015610e5c5780601f10610e3157610100808354040283529160200191610e5c565b820191906000526020600020905b815481529060010190602001808311610e3f57829003601f168201915b5050505050905090565b6000801b81565b600080610e78611100565b90506000610e86828661100f565b905083811015610ecb576040517f08c379a0000000000000000000000000000000000000000000000000000000008152600401610ec290612678565b60405180910390fd5b610ed88286868403611108565b60019250505092915050565b600080610eef611100565b9050610efc81858561135d565b600191505092915050565b600660149054906101000a900461ffff1681565b80600760003373ffffffffffffffffffffffffffffffffffffffff1673ffffffffffffffffffffffffffffffffffffffff16815260200190815260200160002060008473ffffffffffffffffffffffffffffffffffffffff1673ffffffffffffffffffffffffffffffffffffffff16815260200190815260200160002081905550610fc67fa84bc650dcfe8cf5dd2d367b3dc1a91a13f026e1369e505155272a42b6fec9ff8361174f565b5050565b610fd3826107ee565b610fdc8161173b565b610fe68383611830565b505050565b7fa84bc650dcfe8cf5dd2d367b3dc1a91a13f026e1369e505155272a42b6fec9ff81565b6000600160008473ffffffffffffffffffffffffffffffffffffffff1673ffffffffffffffffffffffffffffffffffffffff16815260200190815260200160002060008373ffffffffffffffffffffffffffffffffffffffff1673ffffffffffffffffffffffffffffffffffffffff16815260200190815260200160002054905092915050565b60007f01ffc9a7000000000000000000000000000000000000000000000000000000007bffffffffffffffffffffffffffffffffffffffffffffffffffffffff1916827bffffffffffffffffffffffffffffffffffffffffffffffffffffffff1916149050919050565b600033905090565b600073ffffffffffffffffffffffffffffffffffffffff168373ffffffffffffffffffffffffffffffffffffffff1603611177576040517f08c379a000000000000000000000000000000000000000000000000000000000815260040161116e9061270a565b60405180910390fd5b600073ffffffffffffffffffffffffffffffffffffffff168273ffffffffffffffffffffffffffffffffffffffff16036111e6576040517f08c379a00000000000000000000000000000000000000000000000000000000081526004016111dd9061279c565b60405180910390fd5b80600160008573ffffffffffffffffffffffffffffffffffffffff1673ffffffffffffffffffffffffffffffffffffffff16815260200190815260200160002060008473ffffffffffffffffffffffffffffffffffffffff1673ffffffffffffffffffffffffffffffffffffffff168152602001908152602001600020819055508173ffffffffffffffffffffffffffffffffffffffff168373ffffffffffffffffffffffffffffffffffffffff167f8c5be1e5ebec7d5bd14f71427d1e84f3dd0314c0f7b2291e5b200ac8c7c3b925836040516112c49190611e4a565b60405180910390a3505050565b60006112dd848461100f565b90507fffffffffffffffffffffffffffffffffffffffffffffffffffffffffffffffff81146113575781811015611349576040517f08c379a000000000000000000000000000000000000000000000000000000000815260040161134090612808565b60405180910390fd5b6113568484848403611108565b5b50505050565b600073ffffffffffffffffffffffffffffffffffffffff168373ffffffffffffffffffffffffffffffffffffffff16036113cc576040517f08c379a00000000000000000000000000000000000000000000000000000000081526004016113c39061289a565b60405180910390fd5b600073ffffffffffffffffffffffffffffffffffffffff168273ffffffffffffffffffffffffffffffffffffffff160361143b576040517f08c379a00000000000000000000000000000000000000000000000000000000081526004016114329061292c565b60405180910390fd5b611446838383611912565b60008060008573ffffffffffffffffffffffffffffffffffffffff1673ffffffffffffffffffffffffffffffffffffffff168152602001908152602001600020549050818110156114cc576040517f08c379a00000000000000000000000000000000000000000000000000000000081526004016114c3906129be565b60405180910390fd5b8181036000808673ffffffffffffffffffffffffffffffffffffffff1673ffffffffffffffffffffffffffffffffffffffff16815260200190815260200160002081905550816000808573ffffffffffffffffffffffffffffffffffffffff1673ffffffffffffffffffffffffffffffffffffffff168152602001908152602001600020600082825461155f9190612426565b925050819055508273ffffffffffffffffffffffffffffffffffffffff168473ffffffffffffffffffffffffffffffffffffffff167fddf252ad1be2c89b69c2b068fc378daa952ba7f163c4a11628f55a4df523b3ef846040516115c39190611e4a565b60405180910390a36115d6848484611917565b50505050565b600073ffffffffffffffffffffffffffffffffffffffff168273ffffffffffffffffffffffffffffffffffffffff160361164b576040517f08c379a000000000000000000000000000000000000000000000000000000000815260040161164290612a2a565b60405180910390fd5b61165760008383611912565b80600260008282546116699190612426565b92505081905550806000808473ffffffffffffffffffffffffffffffffffffffff1673ffffffffffffffffffffffffffffffffffffffff16815260200190815260200160002060008282546116be9190612426565b925050819055508173ffffffffffffffffffffffffffffffffffffffff16600073ffffffffffffffffffffffffffffffffffffffff167fddf252ad1be2c89b69c2b068fc378daa952ba7f163c4a11628f55a4df523b3ef836040516117239190611e4a565b60405180910390a361173760008383611917565b5050565b61174c81611747611100565b61191c565b50565b6117598282610d69565b61182c5760016005600084815260200190815260200160002060000160008373ffffffffffffffffffffffffffffffffffffffff1673ffffffffffffffffffffffffffffffffffffffff16815260200190815260200160002060006101000a81548160ff0219169083151502179055506117d1611100565b73ffffffffffffffffffffffffffffffffffffffff168173ffffffffffffffffffffffffffffffffffffffff16837f2f8788117e7eff1d82e926ec794901d17c78024a50270940304540a733656f0d60405160405180910390a45b5050565b61183a8282610d69565b1561190e5760006005600084815260200190815260200160002060000160008373ffffffffffffffffffffffffffffffffffffffff1673ffffffffffffffffffffffffffffffffffffffff16815260200190815260200160002060006101000a81548160ff0219169083151502179055506118b3611100565b73ffffffffffffffffffffffffffffffffffffffff168173ffffffffffffffffffffffffffffffffffffffff16837ff6391f5c32d9c69d2a47ea670b442974b53935d1edc7fd64eb21e047a839171b60405160405180910390a45b5050565b505050565b505050565b6119268282610d69565b6119b55761194b8173ffffffffffffffffffffffffffffffffffffffff1660146119b9565b6119598360001c60206119b9565b60405160200161196a929190612b1e565b6040516020818303038152906040526040517f08c379a00000000000000000000000000000000000000000000000000000000081526004016119ac9190611d45565b60405180910390fd5b5050565b6060600060028360026119cc91906124c6565b6119d69190612426565b67ffffffffffffffff8111156119ef576119ee612b58565b5b6040519080825280601f01601f191660200182016040528015611a215781602001600182028036833780820191505090505b5090507f300000000000000000000000000000000000000000000000000000000000000081600081518110611a5957611a58612b87565b5b60200101907effffffffffffffffffffffffffffffffffffffffffffffffffffffffffffff1916908160001a9053507f780000000000000000000000000000000000000000000000000000000000000081600181518110611abd57611abc612b87565b5b60200101907effffffffffffffffffffffffffffffffffffffffffffffffffffffffffffff1916908160001a90535060006001846002611afd91906124c6565b611b079190612426565b90505b6001811115611ba7577f3031323334353637383961626364656600000000000000000000000000000000600f861660108110611b4957611b48612b87565b5b1a60f81b828281518110611b6057611b5f612b87565b5b60200101907effffffffffffffffffffffffffffffffffffffffffffffffffffffffffffff1916908160001a905350600485901c945080611ba090612bb6565b9050611b0a565b5060008414611beb576040517f08c379a0000000000000000000000000000000000000000000000000000000008152600401611be290612c2b565b60405180910390fd5b8091505092915050565b600080fd5b60007fffffffff0000000000000000000000000000000000000000000000000000000082169050919050565b611c2f81611bfa565b8114611c3a57600080fd5b50565b600081359050611c4c81611c26565b92915050565b600060208284031215611c6857611c67611bf5565b5b6000611c7684828501611c3d565b91505092915050565b60008115159050919050565b611c9481611c7f565b82525050565b6000602082019050611caf6000830184611c8b565b92915050565b600081519050919050565b600082825260208201905092915050565b60005b83811015611cef578082015181840152602081019050611cd4565b60008484015250505050565b6000601f19601f8301169050919050565b6000611d1782611cb5565b611d218185611cc0565b9350611d31818560208601611cd1565b611d3a81611cfb565b840191505092915050565b60006020820190508181036000830152611d5f8184611d0c565b905092915050565b600073ffffffffffffffffffffffffffffffffffffffff82169050919050565b6000611d9282611d67565b9050919050565b611da281611d87565b8114611dad57600080fd5b50565b600081359050611dbf81611d99565b92915050565b6000819050919050565b611dd881611dc5565b8114611de357600080fd5b50565b600081359050611df581611dcf565b92915050565b60008060408385031215611e1257611e11611bf5565b5b6000611e2085828601611db0565b9250506020611e3185828601611de6565b9150509250929050565b611e4481611dc5565b82525050565b6000602082019050611e5f6000830184611e3b565b92915050565b600080600060608486031215611e7e57611e7d611bf5565b5b6000611e8c86828701611db0565b9350506020611e9d86828701611db0565b9250506040611eae86828701611de6565b9150509250925092565b6000819050919050565b611ecb81611eb8565b8114611ed657600080fd5b50565b600081359050611ee881611ec2565b92915050565b600060208284031215611f0457611f03611bf5565b5b6000611f1284828501611ed9565b91505092915050565b611f2481611eb8565b82525050565b6000602082019050611f3f6000830184611f1b565b92915050565b600060208284031215611f5b57611f5a611bf5565b5b6000611f6984828501611de6565b91505092915050565b60008060408385031215611f8957611f88611bf5565b5b6000611f9785828601611ed9565b9250506020611fa885828601611db0565b9150509250929050565b600060ff82169050919050565b611fc881611fb2565b82525050565b6000602082019050611fe36000830184611fbf565b92915050565b600060208284031215611fff57611ffe611bf5565b5b600061200d84828501611db0565b91505092915050565b600061ffff82169050919050565b61202d81612016565b811461203857600080fd5b50565b60008135905061204a81612024565b92915050565b60006020828403121561206657612065611bf5565b5b60006120748482850161203b565b91505092915050565b6000819050919050565b6120908161207d565b82525050565b60006020820190506120ab6000830184612087565b92915050565b6120ba81612016565b82525050565b60006020820190506120d560008301846120b1565b92915050565b600080604083850312156120f2576120f1611bf5565b5b600061210085828601611db0565b925050602061211185828601611db0565b9150509250929050565b7f4e487b7100000000000000000000000000000000000000000000000000000000600052602260045260246000fd5b6000600282049050600182168061216257607f821691505b6020821081036121755761217461211b565b5b50919050565b7f4d696e696d756d206973203120746f6b656e0000000000000000000000000000600082015250565b60006121b1601283611cc0565b91506121bc8261217b565b602082019050919050565b600060208201905081810360008301526121e0816121a4565b9050919050565b7f4e487b7100000000000000000000000000000000000000000000000000000000600052601260045260246000fd5b7f4e487b7100000000000000000000000000000000000000000000000000000000600052601160045260246000fd5b600061225082611dc5565b915061225b83611dc5565b92508261226b5761226a6121e7565b5b828204905092915050565b7f4e6f7420656e6f75676820616d6f756e74000000000000000000000000000000600082015250565b60006122ac601183611cc0565b91506122b782612276565b602082019050919050565b600060208201905081810360008301526122db8161229f565b9050919050565b600081905092915050565b50565b60006122fd6000836122e2565b9150612308826122ed565b600082019050919050565b600061231e826122f0565b9150819050919050565b7f4661696c656420746f2073656e64204d61746963000000000000000000000000600082015250565b600061235e601483611cc0565b915061236982612328565b602082019050919050565b6000602082019050818103600083015261238d81612351565b9050919050565b7f416363657373436f6e74726f6c3a2063616e206f6e6c792072656e6f756e636560008201527f20726f6c657320666f722073656c660000000000000000000000000000000000602082015250565b60006123f0602f83611cc0565b91506123fb82612394565b604082019050919050565b6000602082019050818103600083015261241f816123e3565b9050919050565b600061243182611dc5565b915061243c83611dc5565b925082820190508082111561245457612453612216565b5b92915050565b7f4e6f207265736572766174696f6e206578697374730000000000000000000000600082015250565b6000612490601583611cc0565b915061249b8261245a565b602082019050919050565b600060208201905081810360008301526124bf81612483565b9050919050565b60006124d182611dc5565b91506124dc83611dc5565b92508282026124ea81611dc5565b9150828204841483151761250157612500612216565b5b5092915050565b600069ffffffffffffffffffff82169050919050565b61252781612508565b811461253257600080fd5b50565b6000815190506125448161251e565b92915050565b6125538161207d565b811461255e57600080fd5b50565b6000815190506125708161254a565b92915050565b60008151905061258581611dcf565b92915050565b600080600080600060a086880312156125a7576125a6611bf5565b5b60006125b588828901612535565b95505060206125c688828901612561565b94505060406125d788828901612576565b93505060606125e888828901612576565b92505060806125f988828901612535565b9150509295509295909350565b7f45524332303a2064656372656173656420616c6c6f77616e63652062656c6f7760008201527f207a65726f000000000000000000000000000000000000000000000000000000602082015250565b6000612662602583611cc0565b915061266d82612606565b604082019050919050565b6000602082019050818103600083015261269181612655565b9050919050565b7f45524332303a20617070726f76652066726f6d20746865207a65726f2061646460008201527f7265737300000000000000000000000000000000000000000000000000000000602082015250565b60006126f4602483611cc0565b91506126ff82612698565b604082019050919050565b60006020820190508181036000830152612723816126e7565b9050919050565b7f45524332303a20617070726f766520746f20746865207a65726f20616464726560008201527f7373000000000000000000000000000000000000000000000000000000000000602082015250565b6000612786602283611cc0565b91506127918261272a565b604082019050919050565b600060208201905081810360008301526127b581612779565b9050919050565b7f45524332303a20696e73756666696369656e7420616c6c6f77616e6365000000600082015250565b60006127f2601d83611cc0565b91506127fd826127bc565b602082019050919050565b60006020820190508181036000830152612821816127e5565b9050919050565b7f45524332303a207472616e736665722066726f6d20746865207a65726f20616460008201527f6472657373000000000000000000000000000000000000000000000000000000602082015250565b6000612884602583611cc0565b915061288f82612828565b604082019050919050565b600060208201905081810360008301526128b381612877565b9050919050565b7f45524332303a207472616e7366657220746f20746865207a65726f206164647260008201527f6573730000000000000000000000000000000000000000000000000000000000602082015250565b6000612916602383611cc0565b9150612921826128ba565b604082019050919050565b6000602082019050818103600083015261294581612909565b9050919050565b7f45524332303a207472616e7366657220616d6f756e742065786365656473206260008201527f616c616e63650000000000000000000000000000000000000000000000000000602082015250565b60006129a8602683611cc0565b91506129b38261294c565b604082019050919050565b600060208201905081810360008301526129d78161299b565b9050919050565b7f45524332303a206d696e7420746f20746865207a65726f206164647265737300600082015250565b6000612a14601f83611cc0565b9150612a1f826129de565b602082019050919050565b60006020820190508181036000830152612a4381612a07565b9050919050565b600081905092915050565b7f416363657373436f6e74726f6c3a206163636f756e7420000000000000000000600082015250565b6000612a8b601783612a4a565b9150612a9682612a55565b601782019050919050565b6000612aac82611cb5565b612ab68185612a4a565b9350612ac6818560208601611cd1565b80840191505092915050565b7f206973206d697373696e6720726f6c6520000000000000000000000000000000600082015250565b6000612b08601183612a4a565b9150612b1382612ad2565b601182019050919050565b6000612b2982612a7e565b9150612b358285612aa1565b9150612b4082612afb565b9150612b4c8284612aa1565b91508190509392505050565b7f4e487b7100000000000000000000000000000000000000000000000000000000600052604160045260246000fd5b7f4e487b7100000000000000000000000000000000000000000000000000000000600052603260045260246000fd5b6000612bc182611dc5565b915060008203612bd457612bd3612216565b5b600182039050919050565b7f537472696e67733a20686578206c656e67746820696e73756666696369656e74600082015250565b6000612c15602083611cc0565b9150612c2082612bdf565b602082019050919050565b60006020820190508181036000830152612c4481612c08565b905091905056fea26469706673582212200ac606ee812483aad44b382d3128d39e10c7ab6d837488e4682fd8a07b2599be64736f6c63430008110033",
  "devdoc": {
    "kind": "dev",
    "methods": {
      "addRestaurant(address)": {
        "details": "adding restaurants that can call the verify functions"
      },
      "allowance(address,address)": {
        "details": "See {IERC20-allowance}."
      },
      "approve(address,uint256)": {
        "details": "See {IERC20-approve}. NOTE: If `amount` is the maximum `uint256`, the allowance is not updated on `transferFrom`. This is semantically equivalent to an infinite approval. Requirements: - `spender` cannot be the zero address."
      },
      "balanceOf(address)": {
        "details": "See {IERC20-balanceOf}."
      },
      "buyToken(uint256)": {
        "details": "top-up functionality to buy tokens in exchange of chain native currency"
      },
      "decimals()": {
        "details": "Returns the number of decimals used to get its user representation. For example, if `decimals` equals `2`, a balance of `505` tokens should be displayed to a user as `5.05` (`505 / 10 ** 2`). Tokens usually opt for a value of 18, imitating the relationship between Ether and Wei. This is the value {ERC20} uses, unless this function is overridden; NOTE: This information is only used for _display_ purposes: it in no way affects any of the arithmetic of the contract, including {IERC20-balanceOf} and {IERC20-transfer}."
      },
      "decreaseAllowance(address,uint256)": {
        "details": "Atomically decreases the allowance granted to `spender` by the caller. This is an alternative to {approve} that can be used as a mitigation for problems described in {IERC20-approve}. Emits an {Approval} event indicating the updated allowance. Requirements: - `spender` cannot be the zero address. - `spender` must have allowance for the caller of at least `subtractedValue`."
      },
      "getRoleAdmin(bytes32)": {
        "details": "Returns the admin role that controls `role`. See {grantRole} and {revokeRole}. To change a role's admin, use {_setRoleAdmin}."
      },
      "grantRole(bytes32,address)": {
        "details": "Grants `role` to `account`. If `account` had not been already granted `role`, emits a {RoleGranted} event. Requirements: - the caller must have ``role``'s admin role. May emit a {RoleGranted} event."
      },
      "hasRole(bytes32,address)": {
        "details": "Returns `true` if `account` has been granted `role`."
      },
      "increaseAllowance(address,uint256)": {
        "details": "Atomically increases the allowance granted to `spender` by the caller. This is an alternative to {approve} that can be used as a mitigation for problems described in {IERC20-approve}. Emits an {Approval} event indicating the updated allowance. Requirements: - `spender` cannot be the zero address."
      },
      "name()": {
        "details": "Returns the name of the token."
      },
      "renounceRole(bytes32,address)": {
        "details": "Revokes `role` from the calling account. Roles are often managed via {grantRole} and {revokeRole}: this function's purpose is to provide a mechanism for accounts to lose their privileges if they are compromised (such as when a trusted device is misplaced). If the calling account had been revoked `role`, emits a {RoleRevoked} event. Requirements: - the caller must be `account`. May emit a {RoleRevoked} event."
      },
      "reserve(address,uint256)": {
        "details": "reserving a restaurant appointment and saving it as an entryreserving also whitelist the restaurant"
      },
      "revokeRole(bytes32,address)": {
        "details": "Revokes `role` from `account`. If `account` had been granted `role`, emits a {RoleRevoked} event. Requirements: - the caller must have ``role``'s admin role. May emit a {RoleRevoked} event."
      },
      "supportsInterface(bytes4)": {
        "details": "See {IERC165-supportsInterface}."
      },
      "symbol()": {
        "details": "Returns the symbol of the token, usually a shorter version of the name."
      },
      "totalSupply()": {
        "details": "See {IERC20-totalSupply}."
      },
      "transfer(address,uint256)": {
        "details": "See {IERC20-transfer}. Requirements: - `to` cannot be the zero address. - the caller must have a balance of at least `amount`."
      },
      "transferFrom(address,address,uint256)": {
        "details": "See {IERC20-transferFrom}. Emits an {Approval} event indicating the updated allowance. This is not required by the EIP. See the note at the beginning of {ERC20}. NOTE: Does not update the allowance if the current allowance is the maximum `uint256`. Requirements: - `from` and `to` cannot be the zero address. - `from` must have a balance of at least `amount`. - the caller must have allowance for ``from``'s tokens of at least `amount`."
      },
      "verify(address,uint256)": {
        "details": "verifying customers' sale and transferring the CRW CP token to the customer in proportion to the sale"
      }
    },
    "version": 1
  },
  "userdoc": {
    "kind": "user",
    "methods": {
      "buyToken(uint256)": {
        "notice": "The value of 1 token is equal to 1 dollar. This is calculated by using a price feed matic/usd"
      },
      "verify(address,uint256)": {
        "notice": "the amount must have 16 decimals"
      }
    },
    "version": 1
  },
  "storageLayout": {
    "storage": [
      {
        "astId": 454,
        "contract": "contracts/CRWCP.sol:CRWCP",
        "label": "_balances",
        "offset": 0,
        "slot": "0",
        "type": "t_mapping(t_address,t_uint256)"
      },
      {
        "astId": 460,
        "contract": "contracts/CRWCP.sol:CRWCP",
        "label": "_allowances",
        "offset": 0,
        "slot": "1",
        "type": "t_mapping(t_address,t_mapping(t_address,t_uint256))"
      },
      {
        "astId": 462,
        "contract": "contracts/CRWCP.sol:CRWCP",
        "label": "_totalSupply",
        "offset": 0,
        "slot": "2",
        "type": "t_uint256"
      },
      {
        "astId": 464,
        "contract": "contracts/CRWCP.sol:CRWCP",
        "label": "_name",
        "offset": 0,
        "slot": "3",
        "type": "t_string_storage"
      },
      {
        "astId": 466,
        "contract": "contracts/CRWCP.sol:CRWCP",
        "label": "_symbol",
        "offset": 0,
        "slot": "4",
        "type": "t_string_storage"
      },
      {
        "astId": 70,
        "contract": "contracts/CRWCP.sol:CRWCP",
        "label": "_roles",
        "offset": 0,
        "slot": "5",
        "type": "t_mapping(t_bytes32,t_struct(RoleData)65_storage)"
      },
      {
        "astId": 1423,
        "contract": "contracts/CRWCP.sol:CRWCP",
        "label": "priceFeed",
        "offset": 0,
        "slot": "6",
        "type": "t_contract(AggregatorV3Interface)45"
      },
      {
        "astId": 1431,
        "contract": "contracts/CRWCP.sol:CRWCP",
        "label": "percentage",
        "offset": 20,
        "slot": "6",
        "type": "t_uint16"
      },
      {
        "astId": 1437,
        "contract": "contracts/CRWCP.sol:CRWCP",
        "label": "reservation",
        "offset": 0,
        "slot": "7",
        "type": "t_mapping(t_address,t_mapping(t_address,t_uint256))"
      }
    ],
    "types": {
      "t_address": {
        "encoding": "inplace",
        "label": "address",
        "numberOfBytes": "20"
      },
      "t_bool": {
        "encoding": "inplace",
        "label": "bool",
        "numberOfBytes": "1"
      },
      "t_bytes32": {
        "encoding": "inplace",
        "label": "bytes32",
        "numberOfBytes": "32"
      },
      "t_contract(AggregatorV3Interface)45": {
        "encoding": "inplace",
        "label": "contract AggregatorV3Interface",
        "numberOfBytes": "20"
      },
      "t_mapping(t_address,t_bool)": {
        "encoding": "mapping",
        "key": "t_address",
        "label": "mapping(address => bool)",
        "numberOfBytes": "32",
        "value": "t_bool"
      },
      "t_mapping(t_address,t_mapping(t_address,t_uint256))": {
        "encoding": "mapping",
        "key": "t_address",
        "label": "mapping(address => mapping(address => uint256))",
        "numberOfBytes": "32",
        "value": "t_mapping(t_address,t_uint256)"
      },
      "t_mapping(t_address,t_uint256)": {
        "encoding": "mapping",
        "key": "t_address",
        "label": "mapping(address => uint256)",
        "numberOfBytes": "32",
        "value": "t_uint256"
      },
      "t_mapping(t_bytes32,t_struct(RoleData)65_storage)": {
        "encoding": "mapping",
        "key": "t_bytes32",
        "label": "mapping(bytes32 => struct AccessControl.RoleData)",
        "numberOfBytes": "32",
        "value": "t_struct(RoleData)65_storage"
      },
      "t_string_storage": {
        "encoding": "bytes",
        "label": "string",
        "numberOfBytes": "32"
      },
      "t_struct(RoleData)65_storage": {
        "encoding": "inplace",
        "label": "struct AccessControl.RoleData",
        "members": [
          {
            "astId": 62,
            "contract": "contracts/CRWCP.sol:CRWCP",
            "label": "members",
            "offset": 0,
            "slot": "0",
            "type": "t_mapping(t_address,t_bool)"
          },
          {
            "astId": 64,
            "contract": "contracts/CRWCP.sol:CRWCP",
            "label": "adminRole",
            "offset": 0,
            "slot": "1",
            "type": "t_bytes32"
          }
        ],
        "numberOfBytes": "64"
      },
      "t_uint16": {
        "encoding": "inplace",
        "label": "uint16",
        "numberOfBytes": "2"
      },
      "t_uint256": {
        "encoding": "inplace",
        "label": "uint256",
        "numberOfBytes": "32"
      }
    }
  }
}